{
  "transactions": [
    {
      "hash": "0x80d7375b3d75aa3de48b3efa74dce689377a26d4e2d8c3d116db1a903389dc08",
      "transactionType": "CREATE",
      "contractName": "ForwarderPool",
      "contractAddress": "0x6A8ef55594d6BAeCf852BE849E130e87b6b1C07f",
      "function": null,
      "arguments": null,
      "transaction": {
        "type": "0x00",
        "from": "0x291ff2d8bebee4302f006667d5af2bb7b8675e49",
        "gas": "0x11d8a9",
        "value": "0x0",
        "data": "0x608060405234801561001057600080fd5b50338061003757604051631e4fbdf760e01b81526000600482015260240160405180910390fd5b61004081610046565b50610096565b600080546001600160a01b038381166001600160a01b0319831681178455604051919092169283917f8be0079c531659141344cd1fd0a4f28419497f9722a3daafe3b4186f6b6457e09190a35050565b610ed8806100a56000396000f3fe6080604052600436106100dd5760003560e01c8063715018a61161007f5780638da5cb5b116100595780638da5cb5b1461023e57806397feb9261461025c5780639b5efa8d1461027c578063f2fde38b1461029c57600080fd5b8063715018a6146101e957806379433d8b146101fe5780637fe689171461020657600080fd5b806344004cc1116100bb57806344004cc114610169578063536c6bfa1461018957806364778c1f146101a95780636fb003da146101c957600080fd5b806318137a41146100e257806323d5dc3614610104578063373292a714610149575b600080fd5b3480156100ee57600080fd5b506101026100fd36600461096c565b6102bc565b005b34801561011057600080fd5b5061013461011f36600461096c565b60036020526000908152604090205460ff1681565b60405190151581526020015b60405180910390f35b34801561015557600080fd5b50610102610164366004610990565b6102e6565b34801561017557600080fd5b506101026101843660046109bc565b61039c565b34801561019557600080fd5b506101026101a4366004610990565b61041d565b3480156101b557600080fd5b506101026101c4366004610a6d565b61045b565b3480156101d557600080fd5b506101026101e4366004610aec565b61063d565b3480156101f557600080fd5b50610102610789565b61010261079d565b34801561021257600080fd5b50600454610226906001600160a01b031681565b6040516001600160a01b039091168152602001610140565b34801561024a57600080fd5b506000546001600160a01b0316610226565b34801561026857600080fd5b50610102610277366004610990565b6107c3565b34801561028857600080fd5b50610102610297366004610bff565b61086c565b3480156102a857600080fd5b506101026102b736600461096c565b61089f565b6102c46108da565b600480546001600160a01b0319166001600160a01b0392909216919091179055565b3360009081526003602052604090205460ff1661031e5760405162461bcd60e51b815260040161031590610c38565b60405180910390fd5b6004805460405163095ea7b360e01b81526001600160a01b03918216928101929092526024820183905283169063095ea7b3906044016020604051808303816000875af1158015610373573d6000803e3d6000fd5b505050506040513d601f19601f820116820180604052508101906103979190610c87565b505050565b6103a46108da565b60405163a9059cbb60e01b81526001600160a01b0383811660048301526024820183905284169063a9059cbb906044016020604051808303816000875af11580156103f3573d6000803e3d6000fd5b505050506040513d601f19601f820116820180604052508101906104179190610c87565b50505050565b6104256108da565b6040516001600160a01b0383169082156108fc029083906000818181858888f19350505050158015610397573d6000803e3d6000fd5b3360009081526003602052604090205460ff1661048a5760405162461bcd60e51b815260040161031590610c38565b6004546001600160a01b03166104b25760405162461bcd60e51b815260040161031590610ca4565b6104dc81606001516001600160a01b031673eeeeeeeeeeeeeeeeeeeeeeeeeeeeeeeeeeeeeeee1490565b156105685780514710156105025760405162461bcd60e51b815260040161031590610ce9565b6004805482516040516364778c1f60e01b81526001600160a01b03909216926364778c1f9261053391869101610d39565b6000604051808303818588803b15801561054c57600080fd5b505af1158015610560573d6000803e3d6000fd5b505050505050565b805160608201516001600160a01b031660009081526001602052604090205410156105a55760405162461bcd60e51b815260040161031590610d7d565b805160608201516001600160a01b0316600090815260016020526040812080549091906105d3908490610ddc565b9091555050600480546040516364778c1f60e01b81526001600160a01b03909116916364778c1f9161060791859101610d39565b600060405180830381600087803b15801561062157600080fd5b505af1158015610635573d6000803e3d6000fd5b505050505b50565b3360009081526003602052604090205460ff1661066c5760405162461bcd60e51b815260040161031590610c38565b6004546001600160a01b03166106945760405162461bcd60e51b815260040161031590610ca4565b6106be81606001516001600160a01b031673eeeeeeeeeeeeeeeeeeeeeeeeeeeeeeeeeeeeeeee1490565b156106e95780514710156106e45760405162461bcd60e51b815260040161031590610ce9565b61075a565b805160608201516001600160a01b031660009081526001602052604090205410156107265760405162461bcd60e51b815260040161031590610d7d565b805160608201516001600160a01b031660009081526001602052604081208054909190610754908490610ddc565b90915550505b600480546040516337d801ed60e11b81526001600160a01b0390911691636fb003da9161060791859101610df5565b6107916108da565b61079b6000610907565b565b33600090815260026020526040812080543492906107bc908490610e8f565b9091555050565b6040516323b872dd60e01b8152336004820152306024820152604481018290526001600160a01b038316906323b872dd906064016020604051808303816000875af1158015610816573d6000803e3d6000fd5b505050506040513d601f19601f8201168201806040525081019061083a9190610c87565b506001600160a01b03821660009081526001602052604081208054839290610863908490610e8f565b90915550505050565b6108746108da565b6001600160a01b03919091166000908152600360205260409020805460ff1916911515919091179055565b6108a76108da565b6001600160a01b0381166108d157604051631e4fbdf760e01b815260006004820152602401610315565b61063a81610907565b6000546001600160a01b0316331461079b5760405163118cdaa760e01b8152336004820152602401610315565b600080546001600160a01b038381166001600160a01b0319831681178455604051919092169283917f8be0079c531659141344cd1fd0a4f28419497f9722a3daafe3b4186f6b6457e09190a35050565b6001600160a01b038116811461063a57600080fd5b60006020828403121561097e57600080fd5b813561098981610957565b9392505050565b600080604083850312156109a357600080fd5b82356109ae81610957565b946020939093013593505050565b6000806000606084860312156109d157600080fd5b83356109dc81610957565b925060208401356109ec81610957565b929592945050506040919091013590565b634e487b7160e01b600052604160045260246000fd5b60405160c0810167ffffffffffffffff81118282101715610a3657610a366109fd565b60405290565b604051601f8201601f1916810167ffffffffffffffff81118282101715610a6557610a656109fd565b604052919050565b600060a08284031215610a7f57600080fd5b60405160a0810181811067ffffffffffffffff82111715610aa257610aa26109fd565b80604052508235815260208301356020820152604083013560408201526060830135610acd81610957565b60608201526080830135610ae081610957565b60808201529392505050565b60006020808385031215610aff57600080fd5b823567ffffffffffffffff80821115610b1757600080fd5b9084019060c08287031215610b2b57600080fd5b610b33610a13565b823581528383013584820152604083013560408201526060830135610b5781610957565b60608201526080830135610b6a81610957565b608082015260a083013582811115610b8157600080fd5b80840193505086601f840112610b9657600080fd5b823582811115610ba857610ba86109fd565b610bba601f8201601f19168601610a3c565b92508083528785828601011115610bd057600080fd5b808585018685013760009083019094019390935260a0830152509392505050565b801515811461063a57600080fd5b60008060408385031215610c1257600080fd5b8235610c1d81610957565b91506020830135610c2d81610bf1565b809150509250929050565b6020808252602f908201527f466f72776172646572506f6f6c3a2063616c6c6572206973206e6f742077686960408201526e3a32b634b9ba32b2103334b63632b960891b606082015260800190565b600060208284031215610c9957600080fd5b815161098981610bf1565b60208082526025908201527f466f72776172646572506f6f6c3a206173736574466f72776172646572206e6f6040820152641d081cd95d60da1b606082015260800190565b60208082526030908201527f466f72776172646572506f6f6c3a20696e73756666696369656e74206e61746960408201526f766520746f6b656e2062616c616e636560801b606082015260800190565b8151815260208083015190820152604080830151908201526060808301516001600160a01b0390811691830191909152608092830151169181019190915260a00190565b60208082526029908201527f466f72776172646572506f6f6c3a20696e73756666696369656e7420455243326040820152680c0819195c1bdcda5d60ba1b606082015260800190565b634e487b7160e01b600052601160045260246000fd5b81810381811115610def57610def610dc6565b92915050565b6000602080835283518184015280840151604084015260408401516060840152606084015160018060a01b0380821660808601528060808701511660a0860152505060a084015160c08085015280518060e086015260005b81811015610e6a5782810184015186820161010001528301610e4d565b506101009250600083828701015282601f19601f830116860101935050505092915050565b80820180821115610def57610def610dc656fea264697066735822122040061eb8939af6866645f3a4b62bc892078a589e2b3922705db32e974dbce7b264736f6c63430008140033",
        "nonce": "0xb3"
      },
      "additionalContracts": [],
      "isFixedGasLimit": false
    },
    {
      "hash": "0x6fc52fab641f0eddbcbb483363d4b382807fffb2a8064720a046c82f8ca1f80d",
      "transactionType": "CALL",
      "contractName": "ForwarderPool",
      "contractAddress": "0x6A8ef55594d6BAeCf852BE849E130e87b6b1C07f",
      "function": "setAssetForwarder(address)",
      "arguments": [
        "0xbdfA400EC4CFd2a3c2Ea2670C647127657970cEa"
      ],
      "transaction": {
        "type": "0x00",
        "from": "0x291ff2d8bebee4302f006667d5af2bb7b8675e49",
        "to": "0x6a8ef55594d6baecf852be849e130e87b6b1c07f",
        "gas": "0xf8a6",
        "value": "0x0",
        "data": "0x18137a41000000000000000000000000bdfa400ec4cfd2a3c2ea2670c647127657970cea",
        "nonce": "0xb4"
      },
      "additionalContracts": [],
      "isFixedGasLimit": false
    },
    {
      "hash": "0x7ae85680f2d61cddcddecab7b7d2d1de26ae7e70c26ab37788129831774fd3ce",
      "transactionType": "CALL",
      "contractName": "ForwarderPool",
      "contractAddress": "0x6A8ef55594d6BAeCf852BE849E130e87b6b1C07f",
      "function": "setWhitelistedFiller(address,bool)",
      "arguments": [
        "0x291ff2d8BeBeE4302F006667D5af2bB7b8675e49",
        "true"
      ],
      "transaction": {
        "type": "0x00",
        "from": "0x291ff2d8bebee4302f006667d5af2bb7b8675e49",
        "to": "0x6a8ef55594d6baecf852be849e130e87b6b1c07f",
        "gas": "0xfa63",
        "value": "0x0",
        "data": "0x9b5efa8d000000000000000000000000291ff2d8bebee4302f006667d5af2bb7b8675e490000000000000000000000000000000000000000000000000000000000000001",
        "nonce": "0xb5"
      },
      "additionalContracts": [],
      "isFixedGasLimit": false
    },
    {
      "hash": "0x46bb13cb7f7a81eadf13ea472144d0806eb7912dd8857b164a2913f641e6c481",
      "transactionType": "CALL",
      "contractName": "ForwarderPool",
      "contractAddress": "0x6A8ef55594d6BAeCf852BE849E130e87b6b1C07f",
      "function": "setWhitelistedFiller(address,bool)",
      "arguments": [
        "0xcbA625Dc657CB92D85BcD2c6573605e3ea6E61a9",
        "true"
      ],
      "transaction": {
        "type": "0x00",
        "from": "0x291ff2d8bebee4302f006667d5af2bb7b8675e49",
        "to": "0x6a8ef55594d6baecf852be849e130e87b6b1c07f",
        "gas": "0x1092f",
        "value": "0x0",
        "data": "0x9b5efa8d000000000000000000000000cba625dc657cb92d85bcd2c6573605e3ea6e61a90000000000000000000000000000000000000000000000000000000000000001",
        "nonce": "0xb6"
      },
      "additionalContracts": [],
      "isFixedGasLimit": false
    },
    {
      "hash": "0xac2b6f4d0372b0d09f7facd396ba86cd700e4866a142259ad6be9ff80e146525",
      "transactionType": "CALL",
      "contractName": "ERC20Token",
      "contractAddress": "0x22bAA8b6cdd31a0C5D1035d6e72043f4Ce6aF054",
      "function": "approve(address,uint256):(bool)",
      "arguments": [
        "0x6A8ef55594d6BAeCf852BE849E130e87b6b1C07f",
        "10000000000000 \u001b[2;49;39m[1e13]\u001b[0m"
      ],
      "transaction": {
        "type": "0x00",
        "from": "0x291ff2d8bebee4302f006667d5af2bb7b8675e49",
        "to": "0x22baa8b6cdd31a0c5d1035d6e72043f4ce6af054",
        "gas": "0xf964",
        "value": "0x0",
        "data": "0x095ea7b30000000000000000000000006a8ef55594d6baecf852be849e130e87b6b1c07f000000000000000000000000000000000000000000000000000009184e72a000",
        "nonce": "0xb7"
      },
      "additionalContracts": [],
      "isFixedGasLimit": false
    },
    {
      "hash": "0xbb2d8cc3cbdd77e86794384f06d8dd25b1f6173eaf82c60cd154ddca9c2b09ec",
      "transactionType": "CALL",
      "contractName": "ForwarderPool",
      "contractAddress": "0x6A8ef55594d6BAeCf852BE849E130e87b6b1C07f",
      "function": "depositERC20(address,uint256)",
      "arguments": [
        "0x22bAA8b6cdd31a0C5D1035d6e72043f4Ce6aF054",
        "10000000000000 \u001b[2;49;39m[1e13]\u001b[0m"
      ],
      "transaction": {
        "type": "0x00",
        "from": "0x291ff2d8bebee4302f006667d5af2bb7b8675e49",
        "to": "0x6a8ef55594d6baecf852be849e130e87b6b1c07f",
        "gas": "0x1c69e",
        "value": "0x0",
        "data": "0x97feb92600000000000000000000000022baa8b6cdd31a0c5d1035d6e72043f4ce6af054000000000000000000000000000000000000000000000000000009184e72a000",
        "nonce": "0xb8"
      },
      "additionalContracts": [],
      "isFixedGasLimit": false
    },
    {
      "hash": "0x728f5fff573764033e22c723d81484ab05808305a19d2bd065b8f856196846bf",
      "transactionType": "CALL",
      "contractName": "ForwarderPool",
      "contractAddress": "0x6A8ef55594d6BAeCf852BE849E130e87b6b1C07f",
      "function": "approveAssetForwarder(address,uint256)",
      "arguments": [
        "0x22bAA8b6cdd31a0C5D1035d6e72043f4Ce6aF054",
        "10000000000000 \u001b[2;49;39m[1e13]\u001b[0m"
      ],
      "transaction": {
        "type": "0x00",
        "from": "0x291ff2d8bebee4302f006667d5af2bb7b8675e49",
        "to": "0x6a8ef55594d6baecf852be849e130e87b6b1c07f",
        "gas": "0x133d0",
        "value": "0x0",
        "data": "0x373292a700000000000000000000000022baa8b6cdd31a0c5d1035d6e72043f4ce6af054000000000000000000000000000000000000000000000000000009184e72a000",
        "nonce": "0xb9"
      },
      "additionalContracts": [],
      "isFixedGasLimit": false
    }
  ],
  "receipts": [
    {
      "transactionHash": "0x80d7375b3d75aa3de48b3efa74dce689377a26d4e2d8c3d116db1a903389dc08",
      "transactionIndex": "0x3",
      "blockHash": "0xeab8a4b4006c6c7372b6e593ab1ab82b24b9c3060221260dd19410c40fe94868",
      "blockNumber": "0x2b44807",
      "from": "0x291ff2d8BeBeE4302F006667D5af2bB7b8675e49",
      "to": null,
      "cumulativeGasUsed": "0x16199f",
      "gasUsed": "0xdbb53",
      "contractAddress": "0x6A8ef55594d6BAeCf852BE849E130e87b6b1C07f",
      "logs": [
        {
          "address": "0x6A8ef55594d6BAeCf852BE849E130e87b6b1C07f",
          "topics": [
            "0x8be0079c531659141344cd1fd0a4f28419497f9722a3daafe3b4186f6b6457e0",
            "0x0000000000000000000000000000000000000000000000000000000000000000",
            "0x000000000000000000000000291ff2d8bebee4302f006667d5af2bb7b8675e49"
          ],
          "data": "0x",
          "blockHash": "0xeab8a4b4006c6c7372b6e593ab1ab82b24b9c3060221260dd19410c40fe94868",
          "blockNumber": "0x2b44807",
          "transactionHash": "0x80d7375b3d75aa3de48b3efa74dce689377a26d4e2d8c3d116db1a903389dc08",
          "transactionIndex": "0x3",
          "logIndex": "0x5",
          "removed": false
        },
        {
          "address": "0x0000000000000000000000000000000000001010",
          "topics": [
            "0x4dfe1bbbcf077ddc3e01291eea2d5c70c2b422b415d95645b9adcfd678cb1d63",
            "0x0000000000000000000000000000000000000000000000000000000000001010",
            "0x000000000000000000000000291ff2d8bebee4302f006667d5af2bb7b8675e49",
            "0x000000000000000000000000c275dc8be39f50d12f66b6a63629c39da5bae5bd"
          ],
          "data": "0x00000000000000000000000000000000000000000000000000073191b7a5f16b000000000000000000000000000000000000000000000002bbe2eb63c4c61dcf000000000000000000000000000000000000000000001415c5e4c89d9de8ef1a000000000000000000000000000000000000000000000002bbdbb9d20d202c64000000000000000000000000000000000000000000001415c5ebfa2f558ee085",
          "blockHash": "0xeab8a4b4006c6c7372b6e593ab1ab82b24b9c3060221260dd19410c40fe94868",
          "blockNumber": "0x2b44807",
          "transactionHash": "0x80d7375b3d75aa3de48b3efa74dce689377a26d4e2d8c3d116db1a903389dc08",
          "transactionIndex": "0x3",
          "logIndex": "0x6",
          "removed": false
        }
      ],
      "status": "0x1",
      "logsBloom": "0x00000000000000000000000000000000000000000000000000800000000000000000000000000000000000000000000000008000002000000000000000000000000000000000000000000000000001800001000000000000040100000000000000000000020000000000000000000804000000000000000080000000000000400000000000000000000000000000000000000000000000000000000000000000200000000000000000000000000000000000000000020000000040000000004000000000000000000001200000000000000000000000000000100000000020000000000000000000000000000000000000000000000000000000010000100800",
      "type": "0x0",
      "effectiveGasPrice": "0x861c469a"
    },
    {
      "transactionHash": "0x6fc52fab641f0eddbcbb483363d4b382807fffb2a8064720a046c82f8ca1f80d",
      "transactionIndex": "0x4",
      "blockHash": "0xeab8a4b4006c6c7372b6e593ab1ab82b24b9c3060221260dd19410c40fe94868",
      "blockNumber": "0x2b44807",
      "from": "0x291ff2d8BeBeE4302F006667D5af2bB7b8675e49",
      "to": "0x6A8ef55594d6BAeCf852BE849E130e87b6b1C07f",
      "cumulativeGasUsed": "0x16cda4",
      "gasUsed": "0xb405",
      "contractAddress": null,
      "logs": [
        {
          "address": "0x0000000000000000000000000000000000001010",
          "topics": [
            "0x4dfe1bbbcf077ddc3e01291eea2d5c70c2b422b415d95645b9adcfd678cb1d63",
            "0x0000000000000000000000000000000000000000000000000000000000001010",
            "0x000000000000000000000000291ff2d8bebee4302f006667d5af2bb7b8675e49",
            "0x000000000000000000000000c275dc8be39f50d12f66b6a63629c39da5bae5bd"
          ],
          "data": "0x00000000000000000000000000000000000000000000000000005e4e8025b4ad000000000000000000000000000000000000000000000002bbdbb9d20c36bbe1000000000000000000000000000000000000000000001415c5ebfa2f558ee085000000000000000000000000000000000000000000000002bbdb5b838c110734000000000000000000000000000000000000000000001415c5ec587dd5b49532",
          "blockHash": "0xeab8a4b4006c6c7372b6e593ab1ab82b24b9c3060221260dd19410c40fe94868",
          "blockNumber": "0x2b44807",
          "transactionHash": "0x6fc52fab641f0eddbcbb483363d4b382807fffb2a8064720a046c82f8ca1f80d",
          "transactionIndex": "0x4",
          "logIndex": "0x7",
          "removed": false
        }
      ],
      "status": "0x1",
      "logsBloom": "0x00000000000000000000000000000000000000000000000000000000000000000000000000000000000000000000000000008000002000000000000000000000000000000000000000000000000000800000000000000000040100000000000000000000000000000000000000000004000000000000000080000000000000000000000000000000000000000000000000000000000000000000000000000000200000000000000000000000000000000000000000020000000040000000004000000000000000000001000000000000000000000000000000100000000000000000000000000000000000000000000000000000000000000000010000100000",
      "type": "0x0",
      "effectiveGasPrice": "0x861c469a"
    },
    {
      "transactionHash": "0x7ae85680f2d61cddcddecab7b7d2d1de26ae7e70c26ab37788129831774fd3ce",
      "transactionIndex": "0x5",
      "blockHash": "0xeab8a4b4006c6c7372b6e593ab1ab82b24b9c3060221260dd19410c40fe94868",
      "blockNumber": "0x2b44807",
      "from": "0x291ff2d8BeBeE4302F006667D5af2bB7b8675e49",
      "to": "0x6A8ef55594d6BAeCf852BE849E130e87b6b1C07f",
      "cumulativeGasUsed": "0x1782eb",
      "gasUsed": "0xb547",
      "contractAddress": null,
      "logs": [
        {
          "address": "0x0000000000000000000000000000000000001010",
          "topics": [
            "0x4dfe1bbbcf077ddc3e01291eea2d5c70c2b422b415d95645b9adcfd678cb1d63",
            "0x0000000000000000000000000000000000000000000000000000000000001010",
            "0x000000000000000000000000291ff2d8bebee4302f006667d5af2bb7b8675e49",
            "0x000000000000000000000000c275dc8be39f50d12f66b6a63629c39da5bae5bd"
          ],
          "data": "0x00000000000000000000000000000000000000000000000000005ef72fb66cff000000000000000000000000000000000000000000000002bbdb5b838c0512df000000000000000000000000000000000000000000001415c5ec587dd5b49532000000000000000000000000000000000000000000000002bbdafc8c5c4ea5e0000000000000000000000000000000000000000000001415c5ecb775056b0231",
          "blockHash": "0xeab8a4b4006c6c7372b6e593ab1ab82b24b9c3060221260dd19410c40fe94868",
          "blockNumber": "0x2b44807",
          "transactionHash": "0x7ae85680f2d61cddcddecab7b7d2d1de26ae7e70c26ab37788129831774fd3ce",
          "transactionIndex": "0x5",
          "logIndex": "0x8",
          "removed": false
        }
      ],
      "status": "0x1",
      "logsBloom": "0x00000000000000000000000000000000000000000000000000000000000000000000000000000000000000000000000000008000002000000000000000000000000000000000000000000000000000800000000000000000040100000000000000000000000000000000000000000004000000000000000080000000000000000000000000000000000000000000000000000000000000000000000000000000200000000000000000000000000000000000000000020000000040000000004000000000000000000001000000000000000000000000000000100000000000000000000000000000000000000000000000000000000000000000010000100000",
      "type": "0x0",
      "effectiveGasPrice": "0x861c469a"
    },
    {
      "transactionHash": "0x46bb13cb7f7a81eadf13ea472144d0806eb7912dd8857b164a2913f641e6c481",
      "transactionIndex": "0x6",
      "blockHash": "0xeab8a4b4006c6c7372b6e593ab1ab82b24b9c3060221260dd19410c40fe94868",
      "blockNumber": "0x2b44807",
      "from": "0x291ff2d8BeBeE4302F006667D5af2bB7b8675e49",
      "to": "0x6A8ef55594d6BAeCf852BE849E130e87b6b1C07f",
      "cumulativeGasUsed": "0x18383e",
      "gasUsed": "0xb553",
      "contractAddress": null,
      "logs": [
        {
          "address": "0x0000000000000000000000000000000000001010",
          "topics": [
            "0x4dfe1bbbcf077ddc3e01291eea2d5c70c2b422b415d95645b9adcfd678cb1d63",
            "0x0000000000000000000000000000000000000000000000000000000000001010",
            "0x000000000000000000000000291ff2d8bebee4302f006667d5af2bb7b8675e49",
            "0x000000000000000000000000c275dc8be39f50d12f66b6a63629c39da5bae5bd"
          ],
          "data": "0x00000000000000000000000000000000000000000000000000005efd7909bb6b000000000000000000000000000000000000000000000002bbdafc8c5c429c29000000000000000000000000000000000000000000001415c5ecb775056b0231000000000000000000000000000000000000000000000002bbda9d8ee338e0be000000000000000000000000000000000000000000001415c5ed16727e74bd9c",
          "blockHash": "0xeab8a4b4006c6c7372b6e593ab1ab82b24b9c3060221260dd19410c40fe94868",
          "blockNumber": "0x2b44807",
          "transactionHash": "0x46bb13cb7f7a81eadf13ea472144d0806eb7912dd8857b164a2913f641e6c481",
          "transactionIndex": "0x6",
          "logIndex": "0x9",
          "removed": false
        }
      ],
      "status": "0x1",
      "logsBloom": "0x00000000000000000000000000000000000000000000000000000000000000000000000000000000000000000000000000008000002000000000000000000000000000000000000000000000000000800000000000000000040100000000000000000000000000000000000000000004000000000000000080000000000000000000000000000000000000000000000000000000000000000000000000000000200000000000000000000000000000000000000000020000000040000000004000000000000000000001000000000000000000000000000000100000000000000000000000000000000000000000000000000000000000000000010000100000",
      "type": "0x0",
      "effectiveGasPrice": "0x861c469a"
    },
    {
      "transactionHash": "0xac2b6f4d0372b0d09f7facd396ba86cd700e4866a142259ad6be9ff80e146525",
      "transactionIndex": "0x7",
      "blockHash": "0xeab8a4b4006c6c7372b6e593ab1ab82b24b9c3060221260dd19410c40fe94868",
      "blockNumber": "0x2b44807",
      "from": "0x291ff2d8BeBeE4302F006667D5af2bB7b8675e49",
      "to": "0x22bAA8b6cdd31a0C5D1035d6e72043f4Ce6aF054",
      "cumulativeGasUsed": "0x18eccd",
      "gasUsed": "0xb48f",
      "contractAddress": null,
      "logs": [
        {
          "address": "0x22bAA8b6cdd31a0C5D1035d6e72043f4Ce6aF054",
          "topics": [
            "0x8c5be1e5ebec7d5bd14f71427d1e84f3dd0314c0f7b2291e5b200ac8c7c3b925",
            "0x000000000000000000000000291ff2d8bebee4302f006667d5af2bb7b8675e49",
            "0x0000000000000000000000006a8ef55594d6baecf852be849e130e87b6b1c07f"
          ],
          "data": "0x000000000000000000000000000000000000000000000000000009184e72a000",
          "blockHash": "0xeab8a4b4006c6c7372b6e593ab1ab82b24b9c3060221260dd19410c40fe94868",
          "blockNumber": "0x2b44807",
          "transactionHash": "0xac2b6f4d0372b0d09f7facd396ba86cd700e4866a142259ad6be9ff80e146525",
          "transactionIndex": "0x7",
          "logIndex": "0xa",
          "removed": false
        },
        {
          "address": "0x0000000000000000000000000000000000001010",
          "topics": [
            "0x4dfe1bbbcf077ddc3e01291eea2d5c70c2b422b415d95645b9adcfd678cb1d63",
            "0x0000000000000000000000000000000000000000000000000000000000001010",
            "0x000000000000000000000000291ff2d8bebee4302f006667d5af2bb7b8675e49",
            "0x000000000000000000000000c275dc8be39f50d12f66b6a63629c39da5bae5bd"
          ],
          "data": "0x00000000000000000000000000000000000000000000000000005e96cb63ba87000000000000000000000000000000000000000000000002bbda9d8ee32cd63b000000000000000000000000000000000000000000001415c5ed16727e74bd9c000000000000000000000000000000000000000000000002bbda3ef817c91bb4000000000000000000000000000000000000000000001415c5ed750949d87823",
          "blockHash": "0xeab8a4b4006c6c7372b6e593ab1ab82b24b9c3060221260dd19410c40fe94868",
          "blockNumber": "0x2b44807",
          "transactionHash": "0xac2b6f4d0372b0d09f7facd396ba86cd700e4866a142259ad6be9ff80e146525",
          "transactionIndex": "0x7",
          "logIndex": "0xb",
          "removed": false
        }
      ],
      "status": "0x1",
      "logsBloom": "0x00000000000000000000000000000000000000000000000000000000000000000000000000000000000000000000000000008000002000000000000000200000000100000000000000000000000000800000000000000200040100000000000000000000000000000000000000000004000000000000000080000010000000000000000000000000000000000000000000000000000000000000000000000000220000000000000000000000000000000000000000020000000040000000004000000000000000008001000000000000000000000000000000100000000000000010000000000000000000400000000000000000000000080000010000100000",
      "type": "0x0",
      "effectiveGasPrice": "0x861c469a"
    },
    {
      "transactionHash": "0xbb2d8cc3cbdd77e86794384f06d8dd25b1f6173eaf82c60cd154ddca9c2b09ec",
      "transactionIndex": "0x8",
      "blockHash": "0xeab8a4b4006c6c7372b6e593ab1ab82b24b9c3060221260dd19410c40fe94868",
      "blockNumber": "0x2b44807",
      "from": "0x291ff2d8BeBeE4302F006667D5af2bB7b8675e49",
      "to": "0x6A8ef55594d6BAeCf852BE849E130e87b6b1C07f",
      "cumulativeGasUsed": "0x1a23a7",
      "gasUsed": "0x136da",
      "contractAddress": null,
      "logs": [
        {
          "address": "0x22bAA8b6cdd31a0C5D1035d6e72043f4Ce6aF054",
          "topics": [
            "0x8c5be1e5ebec7d5bd14f71427d1e84f3dd0314c0f7b2291e5b200ac8c7c3b925",
            "0x000000000000000000000000291ff2d8bebee4302f006667d5af2bb7b8675e49",
            "0x0000000000000000000000006a8ef55594d6baecf852be849e130e87b6b1c07f"
          ],
          "data": "0x0000000000000000000000000000000000000000000000000000000000000000",
          "blockHash": "0xeab8a4b4006c6c7372b6e593ab1ab82b24b9c3060221260dd19410c40fe94868",
          "blockNumber": "0x2b44807",
          "transactionHash": "0xbb2d8cc3cbdd77e86794384f06d8dd25b1f6173eaf82c60cd154ddca9c2b09ec",
          "transactionIndex": "0x8",
          "logIndex": "0xc",
          "removed": false
        },
        {
          "address": "0x22bAA8b6cdd31a0C5D1035d6e72043f4Ce6aF054",
          "topics": [
            "0xddf252ad1be2c89b69c2b068fc378daa952ba7f163c4a11628f55a4df523b3ef",
            "0x000000000000000000000000291ff2d8bebee4302f006667d5af2bb7b8675e49",
            "0x0000000000000000000000006a8ef55594d6baecf852be849e130e87b6b1c07f"
          ],
          "data": "0x000000000000000000000000000000000000000000000000000009184e72a000",
          "blockHash": "0xeab8a4b4006c6c7372b6e593ab1ab82b24b9c3060221260dd19410c40fe94868",
          "blockNumber": "0x2b44807",
          "transactionHash": "0xbb2d8cc3cbdd77e86794384f06d8dd25b1f6173eaf82c60cd154ddca9c2b09ec",
          "transactionIndex": "0x8",
          "logIndex": "0xd",
          "removed": false
        },
        {
          "address": "0x0000000000000000000000000000000000001010",
          "topics": [
            "0x4dfe1bbbcf077ddc3e01291eea2d5c70c2b422b415d95645b9adcfd678cb1d63",
            "0x0000000000000000000000000000000000000000000000000000000000001010",
            "0x000000000000000000000000291ff2d8bebee4302f006667d5af2bb7b8675e49",
            "0x000000000000000000000000c275dc8be39f50d12f66b6a63629c39da5bae5bd"
          ],
          "data": "0x0000000000000000000000000000000000000000000000000000a2d8717df6aa000000000000000000000000000000000000000000000002bbda3ef817bd1e35000000000000000000000000000000000000000000001415c5ed750949d87823000000000000000000000000000000000000000000000002bbd99c1fa63f278b000000000000000000000000000000000000000000001415c5ee17e1bb566ecd",
          "blockHash": "0xeab8a4b4006c6c7372b6e593ab1ab82b24b9c3060221260dd19410c40fe94868",
          "blockNumber": "0x2b44807",
          "transactionHash": "0xbb2d8cc3cbdd77e86794384f06d8dd25b1f6173eaf82c60cd154ddca9c2b09ec",
          "transactionIndex": "0x8",
          "logIndex": "0xe",
          "removed": false
        }
      ],
      "status": "0x1",
      "logsBloom": "0x00000000000000000000000000000000000000000000000000000000000000000000000000000000000000000000000000008000002000000000000000200000000100000000000000000008000000800000000000000200040100000000000000000000000000000000000000000004000000000000000080000010000000000000000000000000000000000000000000000000000000000000000000000000220000000000000000000000000000000000000000020000000040000000004000000002000000008001000000000000000000000000000000100000000000000010000000000000000000400000000000000000000000080000010000100000",
      "type": "0x0",
      "effectiveGasPrice": "0x861c469a"
    },
    {
      "transactionHash": "0x728f5fff573764033e22c723d81484ab05808305a19d2bd065b8f856196846bf",
      "transactionIndex": "0x9",
      "blockHash": "0xeab8a4b4006c6c7372b6e593ab1ab82b24b9c3060221260dd19410c40fe94868",
      "blockNumber": "0x2b44807",
      "from": "0x291ff2d8BeBeE4302F006667D5af2bB7b8675e49",
      "to": "0x6A8ef55594d6BAeCf852BE849E130e87b6b1C07f",
      "cumulativeGasUsed": "0x1af620",
      "gasUsed": "0xd279",
      "contractAddress": null,
      "logs": [
        {
          "address": "0x22bAA8b6cdd31a0C5D1035d6e72043f4Ce6aF054",
          "topics": [
            "0x8c5be1e5ebec7d5bd14f71427d1e84f3dd0314c0f7b2291e5b200ac8c7c3b925",
            "0x0000000000000000000000006a8ef55594d6baecf852be849e130e87b6b1c07f",
            "0x000000000000000000000000bdfa400ec4cfd2a3c2ea2670c647127657970cea"
          ],
          "data": "0x000000000000000000000000000000000000000000000000000009184e72a000",
          "blockHash": "0xeab8a4b4006c6c7372b6e593ab1ab82b24b9c3060221260dd19410c40fe94868",
          "blockNumber": "0x2b44807",
          "transactionHash": "0x728f5fff573764033e22c723d81484ab05808305a19d2bd065b8f856196846bf",
          "transactionIndex": "0x9",
          "logIndex": "0xf",
          "removed": false
        },
        {
          "address": "0x0000000000000000000000000000000000001010",
          "topics": [
            "0x4dfe1bbbcf077ddc3e01291eea2d5c70c2b422b415d95645b9adcfd678cb1d63",
            "0x0000000000000000000000000000000000000000000000000000000000001010",
            "0x000000000000000000000000291ff2d8bebee4302f006667d5af2bb7b8675e49",
            "0x000000000000000000000000c275dc8be39f50d12f66b6a63629c39da5bae5bd"
          ],
          "data": "0x00000000000000000000000000000000000000000000000000006e429539b8c1000000000000000000000000000000000000000000000002bbd99c1fa62a8311000000000000000000000000000000000000000000001415c5ee17e1bb566ecd000000000000000000000000000000000000000000000002bbd92ddd10f0ca50000000000000000000000000000000000000000000001415c5ee86245090278e",
          "blockHash": "0xeab8a4b4006c6c7372b6e593ab1ab82b24b9c3060221260dd19410c40fe94868",
          "blockNumber": "0x2b44807",
          "transactionHash": "0x728f5fff573764033e22c723d81484ab05808305a19d2bd065b8f856196846bf",
          "transactionIndex": "0x9",
          "logIndex": "0x10",
          "removed": false
        }
      ],
      "status": "0x1",
      "logsBloom": "0x00000000000000000000000000000000000000000000000000000000000000000000000000000000000000000000000000008000002000000000000000200000000100000000008000000000000000800000000000000200040100000000000000000000000000000000000000000004000000000000000080000010000000000000000000000000000000000000000000000000000000000000000000000000220000000000000000000000000000000000000000020000000040000000004000000002000004008001000000000000000000000000000000100000000000000010000000000000000000400000000000000000000000080000010000100000",
      "type": "0x0",
      "effectiveGasPrice": "0x861c469a"
    }
  ],
  "libraries": [],
  "pending": [],
  "returns": {},
  "timestamp": 1706682532,
  "chain": 80001,
  "multi": false,
  "commit": "0d971e9"
}