{
  "transactions": [
    {
      "hash": "0xf0c17cd80bdec5125c775eb2772644144fcba1c5c3c1282d539b4fd6f85eb15c",
      "transactionType": "CREATE",
      "contractName": "ForwarderPool",
      "contractAddress": "0xecda1a96aE3C0eB1f3Ee2a4f409473d42F74FC57",
      "function": null,
      "arguments": null,
      "transaction": {
        "type": "0x00",
        "from": "0x291ff2d8bebee4302f006667d5af2bb7b8675e49",
        "gas": "0x11f7e5",
        "value": "0x0",
        "data": "0x608060405234801561001057600080fd5b50338061003757604051631e4fbdf760e01b81526000600482015260240160405180910390fd5b61004081610046565b50610096565b600080546001600160a01b038381166001600160a01b0319831681178455604051919092169283917f8be0079c531659141344cd1fd0a4f28419497f9722a3daafe3b4186f6b6457e09190a35050565b610ef5806100a56000396000f3fe6080604052600436106100c25760003560e01c80637fe689171161007f5780639b5efa8d116100595780639b5efa8d14610201578063b13f1b3b14610221578063f1f9ad0d14610241578063f2fde38b1461026157600080fd5b80637fe689171461018b5780638da5cb5b146101c357806397feb926146101e157600080fd5b806318137a41146100c757806323d5dc36146100e957806344004cc11461012e578063536c6bfa1461014e578063715018a61461016e57806379433d8b14610183575b600080fd5b3480156100d357600080fd5b506100e76100e2366004610989565b610281565b005b3480156100f557600080fd5b50610119610104366004610989565b60036020526000908152604090205460ff1681565b60405190151581526020015b60405180910390f35b34801561013a57600080fd5b506100e76101493660046109ad565b6102ab565b34801561015a57600080fd5b506100e76101693660046109ee565b61032c565b34801561017a57600080fd5b506100e761036f565b6100e7610383565b34801561019757600080fd5b506004546101ab906001600160a01b031681565b6040516001600160a01b039091168152602001610125565b3480156101cf57600080fd5b506000546001600160a01b03166101ab565b3480156101ed57600080fd5b506100e76101fc3660046109ee565b6103a9565b34801561020d57600080fd5b506100e761021c366004610a28565b610452565b34801561022d57600080fd5b506100e761023c366004610ad1565b610485565b34801561024d57600080fd5b506100e761025c366004610b50565b6106f0565b34801561026d57600080fd5b506100e761027c366004610989565b6108bc565b6102896108f7565b600480546001600160a01b0319166001600160a01b0392909216919091179055565b6102b36108f7565b60405163a9059cbb60e01b81526001600160a01b0383811660048301526024820183905284169063a9059cbb906044016020604051808303816000875af1158015610302573d6000803e3d6000fd5b505050506040513d601f19601f820116820180604052508101906103269190610c55565b50505050565b6103346108f7565b6040516001600160a01b0383169082156108fc029083906000818181858888f1935050505015801561036a573d6000803e3d6000fd5b505050565b6103776108f7565b6103816000610924565b565b33600090815260026020526040812080543492906103a2908490610c88565b9091555050565b6040516323b872dd60e01b8152336004820152306024820152604481018290526001600160a01b038316906323b872dd906064016020604051808303816000875af11580156103fc573d6000803e3d6000fd5b505050506040513d601f19601f820116820180604052508101906104209190610c55565b506001600160a01b03821660009081526001602052604081208054839290610449908490610c88565b90915550505050565b61045a6108f7565b6001600160a01b03919091166000908152600360205260409020805460ff1916911515919091179055565b3360009081526003602052604090205460ff166104bd5760405162461bcd60e51b81526004016104b490610ca1565b60405180910390fd5b6004546001600160a01b03166104e55760405162461bcd60e51b81526004016104b490610cf0565b61050f81606001516001600160a01b031673eeeeeeeeeeeeeeeeeeeeeeeeeeeeeeeeeeeeeeee1490565b1561059b5780514710156105355760405162461bcd60e51b81526004016104b490610d35565b6004805482516040516364778c1f60e01b81526001600160a01b03909216926364778c1f9261056691869101610d85565b6000604051808303818588803b15801561057f57600080fd5b505af1158015610593573d6000803e3d6000fd5b505050505050565b805160608201516001600160a01b031660009081526001602052604090205410156105d85760405162461bcd60e51b81526004016104b490610dc9565b805160608201516001600160a01b031660009081526001602052604081208054909190610606908490610e12565b9091555050606081015160048054835160405163095ea7b360e01b81526001600160a01b039283169381019390935260248301529091169063095ea7b3906044016020604051808303816000875af1158015610666573d6000803e3d6000fd5b505050506040513d601f19601f8201168201806040525081019061068a9190610c55565b50600480546040516364778c1f60e01b81526001600160a01b03909116916364778c1f916106ba91859101610d85565b600060405180830381600087803b1580156106d457600080fd5b505af11580156106e8573d6000803e3d6000fd5b505050505b50565b3360009081526003602052604090205460ff1661071f5760405162461bcd60e51b81526004016104b490610ca1565b6004546001600160a01b03166107475760405162461bcd60e51b81526004016104b490610cf0565b61077181606001516001600160a01b031673eeeeeeeeeeeeeeeeeeeeeeeeeeeeeeeeeeeeeeee1490565b1561079c5780514710156107975760405162461bcd60e51b81526004016104b490610d35565b61088d565b805160608201516001600160a01b031660009081526001602052604090205410156107d95760405162461bcd60e51b81526004016104b490610dc9565b805160608201516001600160a01b031660009081526001602052604081208054909190610807908490610e12565b9091555050606081015160048054835160405163095ea7b360e01b81526001600160a01b039283169381019390935260248301529091169063095ea7b3906044016020604051808303816000875af1158015610867573d6000803e3d6000fd5b505050506040513d601f19601f8201168201806040525081019061088b9190610c55565b505b600480546040516337d801ed60e11b81526001600160a01b0390911691636fb003da916106ba91859101610e25565b6108c46108f7565b6001600160a01b0381166108ee57604051631e4fbdf760e01b8152600060048201526024016104b4565b6106ed81610924565b6000546001600160a01b031633146103815760405163118cdaa760e01b81523360048201526024016104b4565b600080546001600160a01b038381166001600160a01b0319831681178455604051919092169283917f8be0079c531659141344cd1fd0a4f28419497f9722a3daafe3b4186f6b6457e09190a35050565b6001600160a01b03811681146106ed57600080fd5b60006020828403121561099b57600080fd5b81356109a681610974565b9392505050565b6000806000606084860312156109c257600080fd5b83356109cd81610974565b925060208401356109dd81610974565b929592945050506040919091013590565b60008060408385031215610a0157600080fd5b8235610a0c81610974565b946020939093013593505050565b80151581146106ed57600080fd5b60008060408385031215610a3b57600080fd5b8235610a4681610974565b91506020830135610a5681610a1a565b809150509250929050565b634e487b7160e01b600052604160045260246000fd5b60405160c0810167ffffffffffffffff81118282101715610a9a57610a9a610a61565b60405290565b604051601f8201601f1916810167ffffffffffffffff81118282101715610ac957610ac9610a61565b604052919050565b600060a08284031215610ae357600080fd5b60405160a0810181811067ffffffffffffffff82111715610b0657610b06610a61565b80604052508235815260208301356020820152604083013560408201526060830135610b3181610974565b60608201526080830135610b4481610974565b60808201529392505050565b60006020808385031215610b6357600080fd5b823567ffffffffffffffff80821115610b7b57600080fd5b9084019060c08287031215610b8f57600080fd5b610b97610a77565b823581528383013584820152604083013560408201526060830135610bbb81610974565b60608201526080830135610bce81610974565b608082015260a083013582811115610be557600080fd5b80840193505086601f840112610bfa57600080fd5b823582811115610c0c57610c0c610a61565b610c1e601f8201601f19168601610aa0565b92508083528785828601011115610c3457600080fd5b808585018685013760009083019094019390935260a0830152509392505050565b600060208284031215610c6757600080fd5b81516109a681610a1a565b634e487b7160e01b600052601160045260246000fd5b80820180821115610c9b57610c9b610c72565b92915050565b6020808252602f908201527f466f72776172646572506f6f6c3a2063616c6c6572206973206e6f742077686960408201526e3a32b634b9ba32b2103334b63632b960891b606082015260800190565b60208082526025908201527f466f72776172646572506f6f6c3a206173736574466f72776172646572206e6f6040820152641d081cd95d60da1b606082015260800190565b60208082526030908201527f466f72776172646572506f6f6c3a20696e73756666696369656e74206e61746960408201526f766520746f6b656e2062616c616e636560801b606082015260800190565b8151815260208083015190820152604080830151908201526060808301516001600160a01b0390811691830191909152608092830151169181019190915260a00190565b60208082526029908201527f466f72776172646572506f6f6c3a20696e73756666696369656e7420455243326040820152680c0819195c1bdcda5d60ba1b606082015260800190565b81810381811115610c9b57610c9b610c72565b6000602080835283518184015280840151604084015260408401516060840152606084015160018060a01b0380821660808601528060808701511660a0860152505060a084015160c08085015280518060e086015260005b81811015610e9a5782810184015186820161010001528301610e7d565b506101009250600083828701015282601f19601f83011686010193505050509291505056fea26469706673582212202e41c1920ae3f4c93fe990e7db8dc5911e6321b31d903c3150cdc6a0de8d5e4864736f6c63430008140033",
        "nonce": "0xaf"
      },
      "additionalContracts": [],
      "isFixedGasLimit": false
    },
    {
      "hash": "0xf387655aace3da0a24c2668546f07364e70b6694b9db4e451cab7ca3e2cb311f",
      "transactionType": "CALL",
      "contractName": "ForwarderPool",
      "contractAddress": "0xecda1a96aE3C0eB1f3Ee2a4f409473d42F74FC57",
      "function": "setAssetForwarder(address)",
      "arguments": [
        "0xbdfA400EC4CFd2a3c2Ea2670C647127657970cEa"
      ],
      "transaction": {
        "type": "0x00",
        "from": "0x291ff2d8bebee4302f006667d5af2bb7b8675e49",
        "to": "0xecda1a96ae3c0eb1f3ee2a4f409473d42f74fc57",
        "gas": "0xf886",
        "value": "0x0",
        "data": "0x18137a41000000000000000000000000bdfa400ec4cfd2a3c2ea2670c647127657970cea",
        "nonce": "0xb0"
      },
      "additionalContracts": [],
      "isFixedGasLimit": false
    },
    {
      "hash": "0xddb8af227b89aa67126b6d6e5c33be1ef1d3428bc93713d6caa8dcb1a2028c5b",
      "transactionType": "CALL",
      "contractName": "ForwarderPool",
      "contractAddress": "0xecda1a96aE3C0eB1f3Ee2a4f409473d42F74FC57",
      "function": "setWhitelistedFiller(address,bool)",
      "arguments": [
        "0x291ff2d8BeBeE4302F006667D5af2bB7b8675e49",
        "true"
      ],
      "transaction": {
        "type": "0x00",
        "from": "0x291ff2d8bebee4302f006667d5af2bb7b8675e49",
        "to": "0xecda1a96ae3c0eb1f3ee2a4f409473d42f74fc57",
        "gas": "0x108dd",
        "value": "0x0",
        "data": "0x9b5efa8d000000000000000000000000291ff2d8bebee4302f006667d5af2bb7b8675e490000000000000000000000000000000000000000000000000000000000000001",
        "nonce": "0xb1"
      },
      "additionalContracts": [],
      "isFixedGasLimit": false
    }
  ],
  "receipts": [
    {
      "transactionHash": "0xf0c17cd80bdec5125c775eb2772644144fcba1c5c3c1282d539b4fd6f85eb15c",
      "transactionIndex": "0x3",
      "blockHash": "0x436eb306e258396b5beeab6e4809f735fdbde9c8419536625c2a6b10f6e06c3a",
      "blockNumber": "0x2b3dff7",
      "from": "0x291ff2d8BeBeE4302F006667D5af2bB7b8675e49",
      "to": null,
      "cumulativeGasUsed": "0x1614e8",
      "gasUsed": "0xdd35c",
      "contractAddress": "0xecda1a96aE3C0eB1f3Ee2a4f409473d42F74FC57",
      "logs": [
        {
          "address": "0xecda1a96aE3C0eB1f3Ee2a4f409473d42F74FC57",
          "topics": [
            "0x8be0079c531659141344cd1fd0a4f28419497f9722a3daafe3b4186f6b6457e0",
            "0x0000000000000000000000000000000000000000000000000000000000000000",
            "0x000000000000000000000000291ff2d8bebee4302f006667d5af2bb7b8675e49"
          ],
          "data": "0x",
          "blockHash": "0x436eb306e258396b5beeab6e4809f735fdbde9c8419536625c2a6b10f6e06c3a",
          "blockNumber": "0x2b3dff7",
          "transactionHash": "0xf0c17cd80bdec5125c775eb2772644144fcba1c5c3c1282d539b4fd6f85eb15c",
          "transactionIndex": "0x3",
          "logIndex": "0xd",
          "removed": false
        },
        {
          "address": "0x0000000000000000000000000000000000001010",
          "topics": [
            "0x4dfe1bbbcf077ddc3e01291eea2d5c70c2b422b415d95645b9adcfd678cb1d63",
            "0x0000000000000000000000000000000000000000000000000000000000001010",
            "0x000000000000000000000000291ff2d8bebee4302f006667d5af2bb7b8675e49",
            "0x000000000000000000000000be188d6641e8b680743a4815dfa0f6208038960f"
          ],
          "data": "0x0000000000000000000000000000000000000000000000000004d41b633bb75c000000000000000000000000000000000000000000000002bbe9c05606fe809900000000000000000000000000000000000000000000361bf0c23b033a9d7a02000000000000000000000000000000000000000000000002bbe4ec3aa3c2c93d00000000000000000000000000000000000000000000361bf0c70f1e9dd9315e",
          "blockHash": "0x436eb306e258396b5beeab6e4809f735fdbde9c8419536625c2a6b10f6e06c3a",
          "blockNumber": "0x2b3dff7",
          "transactionHash": "0xf0c17cd80bdec5125c775eb2772644144fcba1c5c3c1282d539b4fd6f85eb15c",
          "transactionIndex": "0x3",
          "logIndex": "0xe",
          "removed": false
        }
      ],
      "status": "0x1",
      "logsBloom": "0x00000000000000000000000000000000000000000000000000800000000000000000000000000000000000000000000000008000000000200000000000000000000000000000000000000000000000800001000000000000000100000000004000000000020000000000000000000804000000000000000080001000000010400000000000000000000000000000000000000000000080000000000000000000200000000000000000000000000000000000000000020000000000000000004000000000000000000001000000000000000000000000000000100040000020000000000000000000000000000000000000000000000000000000010000100000",
      "type": "0x0",
      "effectiveGasPrice": "0x59682f11"
    },
    {
      "transactionHash": "0xf387655aace3da0a24c2668546f07364e70b6694b9db4e451cab7ca3e2cb311f",
      "transactionIndex": "0x4",
      "blockHash": "0x436eb306e258396b5beeab6e4809f735fdbde9c8419536625c2a6b10f6e06c3a",
      "blockNumber": "0x2b3dff7",
      "from": "0x291ff2d8BeBeE4302F006667D5af2bB7b8675e49",
      "to": "0xecda1a96aE3C0eB1f3Ee2a4f409473d42F74FC57",
      "cumulativeGasUsed": "0x16c8d6",
      "gasUsed": "0xb3ee",
      "contractAddress": null,
      "logs": [
        {
          "address": "0x0000000000000000000000000000000000001010",
          "topics": [
            "0x4dfe1bbbcf077ddc3e01291eea2d5c70c2b422b415d95645b9adcfd678cb1d63",
            "0x0000000000000000000000000000000000000000000000000000000000001010",
            "0x000000000000000000000000291ff2d8bebee4302f006667d5af2bb7b8675e49",
            "0x000000000000000000000000be188d6641e8b680743a4815dfa0f6208038960f"
          ],
          "data": "0x00000000000000000000000000000000000000000000000000003ed6f7b965ee000000000000000000000000000000000000000000000002bbe4ec3aa2e5937d00000000000000000000000000000000000000000000361bf0c70f1e9dd9315e000000000000000000000000000000000000000000000002bbe4ad63ab2c2d8f00000000000000000000000000000000000000000000361bf0c74df59592974c",
          "blockHash": "0x436eb306e258396b5beeab6e4809f735fdbde9c8419536625c2a6b10f6e06c3a",
          "blockNumber": "0x2b3dff7",
          "transactionHash": "0xf387655aace3da0a24c2668546f07364e70b6694b9db4e451cab7ca3e2cb311f",
          "transactionIndex": "0x4",
          "logIndex": "0xf",
          "removed": false
        }
      ],
      "status": "0x1",
      "logsBloom": "0x00000000000000000000000000000000000000000000000000000000000000000000000000000000000000000000000000008000000000000000000000000000000000000000000000000000000000800000000000000000000100000000004000000000000000000000000000000004000000000000000080000000000000000000000000000000000000000000000000000000000080000000000000000000200000000000000000000000000000000000000000020000000000000000004000000000000000000001000000000000000000000000000000100040000000000000000000000000000000000000000000000000000000000000010000100000",
      "type": "0x0",
      "effectiveGasPrice": "0x59682f11"
    },
    {
      "transactionHash": "0xddb8af227b89aa67126b6d6e5c33be1ef1d3428bc93713d6caa8dcb1a2028c5b",
      "transactionIndex": "0x5",
      "blockHash": "0x436eb306e258396b5beeab6e4809f735fdbde9c8419536625c2a6b10f6e06c3a",
      "blockNumber": "0x2b3dff7",
      "from": "0x291ff2d8BeBeE4302F006667D5af2bB7b8675e49",
      "to": "0xecda1a96aE3C0eB1f3Ee2a4f409473d42F74FC57",
      "cumulativeGasUsed": "0x177df1",
      "gasUsed": "0xb51b",
      "contractAddress": null,
      "logs": [
        {
          "address": "0x0000000000000000000000000000000000001010",
          "topics": [
            "0x4dfe1bbbcf077ddc3e01291eea2d5c70c2b422b415d95645b9adcfd678cb1d63",
            "0x0000000000000000000000000000000000000000000000000000000000001010",
            "0x000000000000000000000000291ff2d8bebee4302f006667d5af2bb7b8675e49",
            "0x000000000000000000000000be188d6641e8b680743a4815dfa0f6208038960f"
          ],
          "data": "0x00000000000000000000000000000000000000000000000000003f401738aa1b000000000000000000000000000000000000000000000002bbe4ad63ab20eeaf00000000000000000000000000000000000000000000361bf0c74df59592974c000000000000000000000000000000000000000000000002bbe46e2393e8449400000000000000000000000000000000000000000000361bf0c78d35accb4167",
          "blockHash": "0x436eb306e258396b5beeab6e4809f735fdbde9c8419536625c2a6b10f6e06c3a",
          "blockNumber": "0x2b3dff7",
          "transactionHash": "0xddb8af227b89aa67126b6d6e5c33be1ef1d3428bc93713d6caa8dcb1a2028c5b",
          "transactionIndex": "0x5",
          "logIndex": "0x10",
          "removed": false
        }
      ],
      "status": "0x1",
      "logsBloom": "0x00000000000000000000000000000000000000000000000000000000000000000000000000000000000000000000000000008000000000000000000000000000000000000000000000000000000000800000000000000000000100000000004000000000000000000000000000000004000000000000000080000000000000000000000000000000000000000000000000000000000080000000000000000000200000000000000000000000000000000000000000020000000000000000004000000000000000000001000000000000000000000000000000100040000000000000000000000000000000000000000000000000000000000000010000100000",
      "type": "0x0",
      "effectiveGasPrice": "0x59682f11"
    }
  ],
  "libraries": [],
  "pending": [],
  "returns": {},
  "timestamp": 1706620746,
  "chain": 80001,
  "multi": false,
  "commit": "171c9de"
}