{
  "transactions": [
    {
      "hash": "0x753b418f9e85f921c8db66b022d05a3bf52e097a71df7e3c7e8b643ee42a26f7",
      "transactionType": "CREATE",
      "contractName": "ForwarderPool",
      "contractAddress": "0x6D277d651ca4B4684bDA699bbA74b685E11a48d1",
      "function": null,
      "arguments": [
        "0xbdfA400EC4CFd2a3c2Ea2670C647127657970cEa",
        "0x423853a63DBAC343caE1E7aEE6b1c4488888dd13",
        "router12fykm2xhg5ces2vmf4q2aem8c958exv3v0wmvrspa8zucrdwjedsjnnxzt"
      ],
      "transaction": {
        "type": "0x00",
        "from": "0x291ff2d8bebee4302f006667d5af2bb7b8675e49",
        "gas": "0x1b55a6",
        "value": "0x0",
        "data": "0x60806040523480156200001157600080fd5b506040516200186c3803806200186c83398101604081905262000034916200012e565b33806200005b57604051631e4fbdf760e01b81526000600482015260240160405180910390fd5b6200006681620000af565b50600480546001600160a01b038086166001600160a01b03199283161790925560058054928516929091169190911790556006620000a58282620002bd565b5050505062000389565b600080546001600160a01b038381166001600160a01b0319831681178455604051919092169283917f8be0079c531659141344cd1fd0a4f28419497f9722a3daafe3b4186f6b6457e09190a35050565b6001600160a01b03811681146200011557600080fd5b50565b634e487b7160e01b600052604160045260246000fd5b6000806000606084860312156200014457600080fd5b83516200015181620000ff565b809350506020808501516200016681620000ff565b60408601519093506001600160401b03808211156200018457600080fd5b818701915087601f8301126200019957600080fd5b815181811115620001ae57620001ae62000118565b604051601f8201601f19908116603f01168101908382118183101715620001d957620001d962000118565b816040528281528a86848701011115620001f257600080fd5b600093505b82841015620002165784840186015181850187015292850192620001f7565b60008684830101528096505050505050509250925092565b600181811c908216806200024357607f821691505b6020821081036200026457634e487b7160e01b600052602260045260246000fd5b50919050565b601f821115620002b857600081815260208120601f850160051c81016020861015620002935750805b601f850160051c820191505b81811015620002b4578281556001016200029f565b5050505b505050565b81516001600160401b03811115620002d957620002d962000118565b620002f181620002ea84546200022e565b846200026a565b602080601f831160018114620003295760008415620003105750858301515b600019600386901b1c1916600185901b178555620002b4565b600085815260208120601f198616915b828110156200035a5788860151825594840194600190910190840162000339565b5085821015620003795787850151600019600388901b60f8161c191681555b5050505050600190811b01905550565b6114d380620003996000396000f3fe6080604052600436106101145760003560e01c8063715018a6116100a057806397feb9261161006457806397feb926146102f35780639b5efa8d14610313578063b0694a5114610333578063f2fde38b14610346578063fa4c957b1461036657600080fd5b8063715018a61461027857806379433d8b1461028d5780637fe68917146102955780638da5cb5b146102b557806390646b4a146102d357600080fd5b8063373292a7116100e7578063373292a7146101d857806344004cc1146101f8578063536c6bfa1461021857806364778c1f146102385780636fb003da1461025857600080fd5b8063116191b61461011957806318137a41146101565780631b857a6c1461017857806323d5dc3614610198575b600080fd5b34801561012557600080fd5b50600554610139906001600160a01b031681565b6040516001600160a01b0390911681526020015b60405180910390f35b34801561016257600080fd5b50610176610171366004610c0d565b610388565b005b34801561018457600080fd5b50610176610193366004610ce6565b6103b2565b3480156101a457600080fd5b506101c86101b3366004610c0d565b60036020526000908152604090205460ff1681565b604051901515815260200161014d565b3480156101e457600080fd5b506101766101f3366004610d37565b6103ca565b34801561020457600080fd5b50610176610213366004610d63565b610480565b34801561022457600080fd5b50610176610233366004610d37565b610501565b34801561024457600080fd5b50610176610253366004610da4565b61053f565b34801561026457600080fd5b50610176610273366004610e23565b610690565b34801561028457600080fd5b50610176610867565b61017661087b565b3480156102a157600080fd5b50600454610139906001600160a01b031681565b3480156102c157600080fd5b506000546001600160a01b0316610139565b3480156102df57600080fd5b506101766102ee366004610c0d565b6108a1565b3480156102ff57600080fd5b5061017661030e366004610d37565b6108cb565b34801561031f57600080fd5b5061017661032e366004610ef9565b610974565b610176610341366004610f7b565b6109a7565b34801561035257600080fd5b50610176610361366004610c0d565b610ab2565b34801561037257600080fd5b5061037b610aed565b60405161014d919061104b565b610390610b7b565b600480546001600160a01b0319166001600160a01b0392909216919091179055565b6103ba610b7b565b60066103c682826110de565b5050565b3360009081526003602052604090205460ff166104025760405162461bcd60e51b81526004016103f99061119e565b60405180910390fd5b6004805460405163095ea7b360e01b81526001600160a01b03918216928101929092526024820183905283169063095ea7b3906044016020604051808303816000875af1158015610457573d6000803e3d6000fd5b505050506040513d601f19601f8201168201806040525081019061047b91906111ed565b505050565b610488610b7b565b60405163a9059cbb60e01b81526001600160a01b0383811660048301526024820183905284169063a9059cbb906044016020604051808303816000875af11580156104d7573d6000803e3d6000fd5b505050506040513d601f19601f820116820180604052508101906104fb91906111ed565b50505050565b610509610b7b565b6040516001600160a01b0383169082156108fc029083906000818181858888f1935050505015801561047b573d6000803e3d6000fd5b3360009081526003602052604090205460ff1661056e5760405162461bcd60e51b81526004016103f99061119e565b6004546001600160a01b03166105965760405162461bcd60e51b81526004016103f99061120a565b6105c081606001516001600160a01b031673eeeeeeeeeeeeeeeeeeeeeeeeeeeeeeeeeeeeeeee1490565b1561062b576004805482516040516364778c1f60e01b81526001600160a01b03909216926364778c1f926105f69186910161124f565b6000604051808303818588803b15801561060f57600080fd5b505af1158015610623573d6000803e3d6000fd5b505050505050565b600480546040516364778c1f60e01b81526001600160a01b03909116916364778c1f9161065a9185910161124f565b600060405180830381600087803b15801561067457600080fd5b505af1158015610688573d6000803e3d6000fd5b505050505b50565b3360009081526003602052604090205460ff166106bf5760405162461bcd60e51b81526004016103f99061119e565b6004546001600160a01b03166106e75760405162461bcd60e51b81526004016103f99061120a565b61071181606001516001600160a01b031673eeeeeeeeeeeeeeeeeeeeeeeeeeeeeeeeeeeeeeee1490565b156107855780514710156107805760405162461bcd60e51b815260206004820152603060248201527f466f72776172646572506f6f6c3a20696e73756666696369656e74206e61746960448201526f766520746f6b656e2062616c616e636560801b60648201526084016103f9565b610838565b805160608201516001600160a01b031660009081526001602052604090205410156108045760405162461bcd60e51b815260206004820152602960248201527f466f72776172646572506f6f6c3a20696e73756666696369656e7420455243326044820152680c0819195c1bdcda5d60ba1b60648201526084016103f9565b805160608201516001600160a01b0316600090815260016020526040812080549091906108329084906112a9565b90915550505b600480546040516337d801ed60e11b81526001600160a01b0390911691636fb003da9161065a918591016112c2565b61086f610b7b565b6108796000610ba8565b565b336000908152600260205260408120805434929061089a90849061131d565b9091555050565b6108a9610b7b565b600580546001600160a01b0319166001600160a01b0392909216919091179055565b6040516323b872dd60e01b8152336004820152306024820152604481018290526001600160a01b038316906323b872dd906064016020604051808303816000875af115801561091e573d6000803e3d6000fd5b505050506040513d601f19601f8201168201806040525081019061094291906111ed565b506001600160a01b0382166000908152600160205260408120805483929061096b90849061131d565b90915550505050565b61097c610b7b565b6001600160a01b03919091166000908152600360205260409020805460ff1916911515919091179055565b6109af610b7b565b60008585856040516020016109c693929190611359565b604051602081830303815290604052905060006006826040516020016109ed929190611386565b60408051601f1981840301815260055460208481018452600080865284518086018652600d81526c726f757465725f393632352d3160981b928101929092529351633df6a38560e11b81529295506001600160a01b0390911693637bed470a933493610a6593600193918c908c908b9060040161141c565b60206040518083038185885af1158015610a83573d6000803e3d6000fd5b50505050506040513d601f19601f82011682018060405250810190610aa89190611484565b5050505050505050565b610aba610b7b565b6001600160a01b038116610ae457604051631e4fbdf760e01b8152600060048201526024016103f9565b61068d81610ba8565b60068054610afa9061105e565b80601f0160208091040260200160405190810160405280929190818152602001828054610b269061105e565b8015610b735780601f10610b4857610100808354040283529160200191610b73565b820191906000526020600020905b815481529060010190602001808311610b5657829003601f168201915b505050505081565b6000546001600160a01b031633146108795760405163118cdaa760e01b81523360048201526024016103f9565b600080546001600160a01b038381166001600160a01b0319831681178455604051919092169283917f8be0079c531659141344cd1fd0a4f28419497f9722a3daafe3b4186f6b6457e09190a35050565b6001600160a01b038116811461068d57600080fd5b600060208284031215610c1f57600080fd5b8135610c2a81610bf8565b9392505050565b634e487b7160e01b600052604160045260246000fd5b60405160c0810167ffffffffffffffff81118282101715610c6a57610c6a610c31565b60405290565b600067ffffffffffffffff80841115610c8b57610c8b610c31565b604051601f8501601f19908116603f01168101908282118183101715610cb357610cb3610c31565b81604052809350858152868686011115610ccc57600080fd5b858560208301376000602087830101525050509392505050565b600060208284031215610cf857600080fd5b813567ffffffffffffffff811115610d0f57600080fd5b8201601f81018413610d2057600080fd5b610d2f84823560208401610c70565b949350505050565b60008060408385031215610d4a57600080fd5b8235610d5581610bf8565b946020939093013593505050565b600080600060608486031215610d7857600080fd5b8335610d8381610bf8565b92506020840135610d9381610bf8565b929592945050506040919091013590565b600060a08284031215610db657600080fd5b60405160a0810181811067ffffffffffffffff82111715610dd957610dd9610c31565b80604052508235815260208301356020820152604083013560408201526060830135610e0481610bf8565b60608201526080830135610e1781610bf8565b60808201529392505050565b600060208284031215610e3557600080fd5b813567ffffffffffffffff80821115610e4d57600080fd5b9083019060c08286031215610e6157600080fd5b610e69610c47565b8235815260208301356020820152604083013560408201526060830135610e8f81610bf8565b60608201526080830135610ea281610bf8565b608082015260a083013582811115610eb957600080fd5b80840193505085601f840112610ece57600080fd5b610edd86843560208601610c70565b60a082015295945050505050565b801515811461068d57600080fd5b60008060408385031215610f0c57600080fd5b8235610f1781610bf8565b91506020830135610f2781610eeb565b809150509250929050565b60008083601f840112610f4457600080fd5b50813567ffffffffffffffff811115610f5c57600080fd5b602083019150836020828501011115610f7457600080fd5b9250929050565b600080600080600060608688031215610f9357600080fd5b853567ffffffffffffffff8082168214610fac57600080fd5b90955060208701359080821115610fc257600080fd5b610fce89838a01610f32565b90965094506040880135915080821115610fe757600080fd5b50610ff488828901610f32565b969995985093965092949392505050565b6000815180845260005b8181101561102b5760208185018101518683018201520161100f565b506000602082860101526020601f19601f83011685010191505092915050565b602081526000610c2a6020830184611005565b600181811c9082168061107257607f821691505b60208210810361109257634e487b7160e01b600052602260045260246000fd5b50919050565b601f82111561047b57600081815260208120601f850160051c810160208610156110bf5750805b601f850160051c820191505b81811015610623578281556001016110cb565b815167ffffffffffffffff8111156110f8576110f8610c31565b61110c81611106845461105e565b84611098565b602080601f83116001811461114157600084156111295750858301515b600019600386901b1c1916600185901b178555610623565b600085815260208120601f198616915b8281101561117057888601518255948401946001909101908401611151565b508582101561118e5787850151600019600388901b60f8161c191681555b5050505050600190811b01905550565b6020808252602f908201527f466f72776172646572506f6f6c3a2063616c6c6572206973206e6f742077686960408201526e3a32b634b9ba32b2103334b63632b960891b606082015260800190565b6000602082840312156111ff57600080fd5b8151610c2a81610eeb565b60208082526025908201527f466f72776172646572506f6f6c3a206173736574466f72776172646572206e6f6040820152641d081cd95d60da1b606082015260800190565b8151815260208083015190820152604080830151908201526060808301516001600160a01b0390811691830191909152608092830151169181019190915260a00190565b634e487b7160e01b600052601160045260246000fd5b818103818111156112bc576112bc611293565b92915050565b602081528151602082015260208201516040820152604082015160608201526000606083015160018060a01b0380821660808501528060808601511660a0850152505060a083015160c080840152610d2f60e0840182611005565b808201808211156112bc576112bc611293565b81835281816020850137506000828201602090810191909152601f909101601f19169091010190565b67ffffffffffffffff8416815260406020820152600061137d604083018486611330565b95945050505050565b6040815260008084546113988161105e565b80604086015260606001808416600081146113ba57600181146113d457611405565b60ff1985168884015283151560051b880183019550611405565b8960005260208060002060005b868110156113fc5781548b82018701529084019082016113e1565b8a018501975050505b5050505050828103602084015261137d8185611005565b87815286602082015260c06040820152600061143b60c0830188611005565b828103606084015261144d8188611005565b90508281036080840152611462818688611330565b905082810360a08401526114768185611005565b9a9950505050505050505050565b60006020828403121561149657600080fd5b505191905056fea2646970667358221220c4547273fa5708c8c03372671cd63976faaba005da10e638cda1b192d297366564736f6c63430008140033000000000000000000000000bdfa400ec4cfd2a3c2ea2670c647127657970cea000000000000000000000000423853a63dbac343cae1e7aee6b1c4488888dd1300000000000000000000000000000000000000000000000000000000000000600000000000000000000000000000000000000000000000000000000000000041726f75746572313266796b6d327868673563657332766d6634713261656d3863393538657876337630776d7672737061387a75637264776a6564736a6e6e787a7400000000000000000000000000000000000000000000000000000000000000",
        "nonce": "0xcd"
      },
      "additionalContracts": [],
      "isFixedGasLimit": false
    },
    {
      "hash": "0x76cbc8147cd24f84d0178be9fea1a7eafcb05def68abbbfa4cd4426a3d828e12",
      "transactionType": "CALL",
      "contractName": "ForwarderPool",
      "contractAddress": "0x6D277d651ca4B4684bDA699bbA74b685E11a48d1",
      "function": "setForwarderRefundClaimer(uint64,string,bytes)",
      "arguments": [
        "1708470322 \u001b[2;49;39m[1.708e9]\u001b[0m",
        "router19y0l9k97hmjrqtcqvenattetk7uxwhjfyk56lt",
        "0x"
      ],
      "transaction": {
        "type": "0x00",
        "from": "0x291ff2d8bebee4302f006667d5af2bb7b8675e49",
        "to": "0x6d277d651ca4b4684bda699bba74b685e11a48d1",
        "gas": "0x1793d",
        "value": "0x0",
        "data": "0xb0694a510000000000000000000000000000000000000000000000000000000065d53032000000000000000000000000000000000000000000000000000000000000006000000000000000000000000000000000000000000000000000000000000000c0000000000000000000000000000000000000000000000000000000000000002d726f75746572313979306c396b3937686d6a727174637176656e61747465746b37757877686a66796b35366c74000000000000000000000000000000000000000000000000000000000000000000000000000000000000000000000000000000",
        "nonce": "0xce"
      },
      "additionalContracts": [],
      "isFixedGasLimit": false
    },
    {
      "hash": "0x9a47f24062cc0db81d48297a16272911044a6229cbc1e6e7a1255bafdf38fafc",
      "transactionType": "CALL",
      "contractName": "ForwarderPool",
      "contractAddress": "0x6D277d651ca4B4684bDA699bbA74b685E11a48d1",
      "function": "setWhitelistedFiller(address,bool)",
      "arguments": [
        "0x291ff2d8BeBeE4302F006667D5af2bB7b8675e49",
        "true"
      ],
      "transaction": {
        "type": "0x00",
        "from": "0x291ff2d8bebee4302f006667d5af2bb7b8675e49",
        "to": "0x6d277d651ca4b4684bda699bba74b685e11a48d1",
        "gas": "0x108fd",
        "value": "0x0",
        "data": "0x9b5efa8d000000000000000000000000291ff2d8bebee4302f006667d5af2bb7b8675e490000000000000000000000000000000000000000000000000000000000000001",
        "nonce": "0xcf"
      },
      "additionalContracts": [],
      "isFixedGasLimit": false
    },
    {
      "hash": "0x3febb03384d65cc1846834db2728b89d77b1aadfd66e89c9f94ab305aa6a55b4",
      "transactionType": "CALL",
      "contractName": "ForwarderPool",
      "contractAddress": "0x6D277d651ca4B4684bDA699bbA74b685E11a48d1",
      "function": "setWhitelistedFiller(address,bool)",
      "arguments": [
        "0xcbA625Dc657CB92D85BcD2c6573605e3ea6E61a9",
        "true"
      ],
      "transaction": {
        "type": "0x00",
        "from": "0x291ff2d8bebee4302f006667d5af2bb7b8675e49",
        "to": "0x6d277d651ca4b4684bda699bba74b685e11a48d1",
        "gas": "0xfa54",
        "value": "0x0",
        "data": "0x9b5efa8d000000000000000000000000cba625dc657cb92d85bcd2c6573605e3ea6e61a90000000000000000000000000000000000000000000000000000000000000001",
        "nonce": "0xd0"
      },
      "additionalContracts": [],
      "isFixedGasLimit": false
    },
    {
      "hash": "0xf8c529f37a3eec38572570a452387bd6b04d1fb7092d5bca9036d560a243c666",
      "transactionType": "CALL",
      "contractName": "ERC20Token",
      "contractAddress": "0x22bAA8b6cdd31a0C5D1035d6e72043f4Ce6aF054",
      "function": "approve(address,uint256):(bool)",
      "arguments": [
        "0x6D277d651ca4B4684bDA699bbA74b685E11a48d1",
        "10000000000000 \u001b[2;49;39m[1e13]\u001b[0m"
      ],
      "transaction": {
        "type": "0x00",
        "from": "0x291ff2d8bebee4302f006667d5af2bb7b8675e49",
        "to": "0x22baa8b6cdd31a0c5d1035d6e72043f4ce6af054",
        "gas": "0xf964",
        "value": "0x0",
        "data": "0x095ea7b30000000000000000000000006d277d651ca4b4684bda699bba74b685e11a48d1000000000000000000000000000000000000000000000000000009184e72a000",
        "nonce": "0xd1"
      },
      "additionalContracts": [],
      "isFixedGasLimit": false
    },
    {
      "hash": "0x5762ac6515b0d72ed3e96856da0dc4ad3540d811ffb83568c45674249c2d396a",
      "transactionType": "CALL",
      "contractName": "ForwarderPool",
      "contractAddress": "0x6D277d651ca4B4684bDA699bbA74b685E11a48d1",
      "function": "depositERC20(address,uint256)",
      "arguments": [
        "0x22bAA8b6cdd31a0C5D1035d6e72043f4Ce6aF054",
        "10000000000000 \u001b[2;49;39m[1e13]\u001b[0m"
      ],
      "transaction": {
        "type": "0x00",
        "from": "0x291ff2d8bebee4302f006667d5af2bb7b8675e49",
        "to": "0x6d277d651ca4b4684bda699bba74b685e11a48d1",
        "gas": "0x1ad3e",
        "value": "0x0",
        "data": "0x97feb92600000000000000000000000022baa8b6cdd31a0c5d1035d6e72043f4ce6af054000000000000000000000000000000000000000000000000000009184e72a000",
        "nonce": "0xd2"
      },
      "additionalContracts": [],
      "isFixedGasLimit": false
    },
    {
      "hash": "0x21ab0f3f6523a49c7a12f72e90830bbe9080b0ef3bbe1d9d71983cbd75e22b27",
      "transactionType": "CALL",
      "contractName": "ForwarderPool",
      "contractAddress": "0x6D277d651ca4B4684bDA699bbA74b685E11a48d1",
      "function": "approveAssetForwarder(address,uint256)",
      "arguments": [
        "0x22bAA8b6cdd31a0C5D1035d6e72043f4Ce6aF054",
        "10000000000000 \u001b[2;49;39m[1e13]\u001b[0m"
      ],
      "transaction": {
        "type": "0x00",
        "from": "0x291ff2d8bebee4302f006667d5af2bb7b8675e49",
        "to": "0x6d277d651ca4b4684bda699bba74b685e11a48d1",
        "gas": "0x12278",
        "value": "0x0",
        "data": "0x373292a700000000000000000000000022baa8b6cdd31a0c5d1035d6e72043f4ce6af054000000000000000000000000000000000000000000000000000009184e72a000",
        "nonce": "0xd3"
      },
      "additionalContracts": [],
      "isFixedGasLimit": false
    }
  ],
  "receipts": [
    {
      "transactionHash": "0x753b418f9e85f921c8db66b022d05a3bf52e097a71df7e3c7e8b643ee42a26f7",
      "transactionIndex": "0x0",
      "blockHash": "0x4fe01781abfb6284ecf0840c47887536613d904f5f19cb162046ed0b17d4146b",
      "blockNumber": "0x2c00775",
      "from": "0x291ff2d8BeBeE4302F006667D5af2bB7b8675e49",
      "to": null,
      "cumulativeGasUsed": "0x150865",
      "gasUsed": "0x150865",
      "contractAddress": "0x6D277d651ca4B4684bDA699bbA74b685E11a48d1",
      "logs": [
        {
          "address": "0x6D277d651ca4B4684bDA699bbA74b685E11a48d1",
          "topics": [
            "0x8be0079c531659141344cd1fd0a4f28419497f9722a3daafe3b4186f6b6457e0",
            "0x0000000000000000000000000000000000000000000000000000000000000000",
            "0x000000000000000000000000291ff2d8bebee4302f006667d5af2bb7b8675e49"
          ],
          "data": "0x",
          "blockHash": "0x4fe01781abfb6284ecf0840c47887536613d904f5f19cb162046ed0b17d4146b",
          "blockNumber": "0x2c00775",
          "transactionHash": "0x753b418f9e85f921c8db66b022d05a3bf52e097a71df7e3c7e8b643ee42a26f7",
          "transactionIndex": "0x0",
          "logIndex": "0x0",
          "removed": false
        },
        {
          "address": "0x0000000000000000000000000000000000001010",
          "topics": [
            "0x4dfe1bbbcf077ddc3e01291eea2d5c70c2b422b415d95645b9adcfd678cb1d63",
            "0x0000000000000000000000000000000000000000000000000000000000001010",
            "0x000000000000000000000000291ff2d8bebee4302f006667d5af2bb7b8675e49",
            "0x0000000000000000000000005082f249cdb2f2c1ee035e4f423c46ea2dab3ab1"
          ],
          "data": "0x0000000000000000000000000000000000000000000000000007587a62928b00000000000000000000000000000000000000000000000002bb6aec5bc3f3d61a00000000000000000000000000000000000000000000067476ea7e545ba7d6da000000000000000000000000000000000000000000000002bb6393e161614b1a00000000000000000000000000000000000000000000067476f1d6cebe3a61da",
          "blockHash": "0x4fe01781abfb6284ecf0840c47887536613d904f5f19cb162046ed0b17d4146b",
          "blockNumber": "0x2c00775",
          "transactionHash": "0x753b418f9e85f921c8db66b022d05a3bf52e097a71df7e3c7e8b643ee42a26f7",
          "transactionIndex": "0x0",
          "logIndex": "0x1",
          "removed": false
        }
      ],
      "status": "0x1",
      "logsBloom": "0x00000020000000000000000000000000000000000000000000800000020000000000000002000000000000000000000000008000000000000000000000000000000000000000000000000000000000800001000000000000000100000000000000000000020000000000000000000804000000000000000080000000000000400000000010000000000000000000000000000000000000000000000000000000200000000000000000008000000000000000000000020000000000000000004000000000000000000001000000000000000000000000000000100000000020000000000000000080000000000000000000000000000000000000010000100000",
      "type": "0x0",
      "effectiveGasPrice": "0x59682f0f"
    },
    {
      "transactionHash": "0x76cbc8147cd24f84d0178be9fea1a7eafcb05def68abbbfa4cd4426a3d828e12",
      "transactionIndex": "0x1",
      "blockHash": "0x4fe01781abfb6284ecf0840c47887536613d904f5f19cb162046ed0b17d4146b",
      "blockNumber": "0x2c00775",
      "from": "0x291ff2d8BeBeE4302F006667D5af2bB7b8675e49",
      "to": "0x6D277d651ca4B4684bDA699bbA74b685E11a48d1",
      "cumulativeGasUsed": "0x161983",
      "gasUsed": "0x1111e",
      "contractAddress": null,
      "logs": [
        {
          "address": "0x423853a63DBAC343caE1E7aEE6b1c4488888dd13",
          "topics": [
            "0xfe97fc293d7232e604aad58a3d02e21ee253fa0462586ea83bf3d6a84d987a6a",
            "0x000000000000000000000000000000000000000000000000000000000000035d"
          ],
          "data": "0x000000000000000000000000000000000000000000000000000000000000000100000000000000000000000000000000000000000000000000000000000000000000000000000000000000006d277d651ca4b4684bda699bba74b685e11a48d100000000000000000000000000000000000000000000000000000000000001000000000000000000000000000000000000000000000000000000000000000140000000000000000000000000000000000000000000000000000000000000018000000000000000000000000000000000000000000000000000000000000001a000000000000000000000000000000000000000000000000000000000000001c000000000000000000000000000000000000000000000000000000000000000053830303031000000000000000000000000000000000000000000000000000000000000000000000000000000000000000000000000000000000000000000000d726f757465725f393632352d3100000000000000000000000000000000000000000000000000000000000000000000000000000000000000000000000000000000000000000000000000000000000000000000000000000000000000000000000000000000000000000000000000000000000000000000000000000000000180000000000000000000000000000000000000000000000000000000000000004000000000000000000000000000000000000000000000000000000000000000c00000000000000000000000000000000000000000000000000000000000000041726f75746572313266796b6d327868673563657332766d6634713261656d3863393538657876337630776d7672737061387a75637264776a6564736a6e6e787a740000000000000000000000000000000000000000000000000000000000000000000000000000000000000000000000000000000000000000000000000000a00000000000000000000000000000000000000000000000000000000065d530320000000000000000000000000000000000000000000000000000000000000040000000000000000000000000000000000000000000000000000000000000002d726f75746572313979306c396b3937686d6a727174637176656e61747465746b37757877686a66796b35366c7400000000000000000000000000000000000000",
          "blockHash": "0x4fe01781abfb6284ecf0840c47887536613d904f5f19cb162046ed0b17d4146b",
          "blockNumber": "0x2c00775",
          "transactionHash": "0x76cbc8147cd24f84d0178be9fea1a7eafcb05def68abbbfa4cd4426a3d828e12",
          "transactionIndex": "0x1",
          "logIndex": "0x2",
          "removed": false
        },
        {
          "address": "0x0000000000000000000000000000000000001010",
          "topics": [
            "0x4dfe1bbbcf077ddc3e01291eea2d5c70c2b422b415d95645b9adcfd678cb1d63",
            "0x0000000000000000000000000000000000000000000000000000000000001010",
            "0x000000000000000000000000291ff2d8bebee4302f006667d5af2bb7b8675e49",
            "0x0000000000000000000000005082f249cdb2f2c1ee035e4f423c46ea2dab3ab1"
          ],
          "data": "0x00000000000000000000000000000000000000000000000000005f6294548200000000000000000000000000000000000000000000000002bb6393e16025cd2f00000000000000000000000000000000000000000000067476f1d6cebe3a61da000000000000000000000000000000000000000000000002bb63347ecbd14b2f00000000000000000000000000000000000000000000067476f23631528ee3da",
          "blockHash": "0x4fe01781abfb6284ecf0840c47887536613d904f5f19cb162046ed0b17d4146b",
          "blockNumber": "0x2c00775",
          "transactionHash": "0x76cbc8147cd24f84d0178be9fea1a7eafcb05def68abbbfa4cd4426a3d828e12",
          "transactionIndex": "0x1",
          "logIndex": "0x3",
          "removed": false
        }
      ],
      "status": "0x1",
      "logsBloom": "0x00000000008000000000000000000000000000000000008000000000020000000000000002000100000000000000000000008000000000000000000000000000000000000000000000000000000000840000000000000000000100000000000000000000000000000000000000000004000000000000000080000000000020000000000000000000000000000008000000000000000000000000000000000000200000000000000000000000000000000000000000020000000000000000004000000001004000000001000000000000000000800000000000100000000000000000000000000080000000000000000000000000000000000000010000100000",
      "type": "0x0",
      "effectiveGasPrice": "0x59682f0f"
    },
    {
      "transactionHash": "0x9a47f24062cc0db81d48297a16272911044a6229cbc1e6e7a1255bafdf38fafc",
      "transactionIndex": "0x2",
      "blockHash": "0x4fe01781abfb6284ecf0840c47887536613d904f5f19cb162046ed0b17d4146b",
      "blockNumber": "0x2c00775",
      "from": "0x291ff2d8BeBeE4302F006667D5af2bB7b8675e49",
      "to": "0x6D277d651ca4B4684bDA699bbA74b685E11a48d1",
      "cumulativeGasUsed": "0x16ceb4",
      "gasUsed": "0xb531",
      "contractAddress": null,
      "logs": [
        {
          "address": "0x0000000000000000000000000000000000001010",
          "topics": [
            "0x4dfe1bbbcf077ddc3e01291eea2d5c70c2b422b415d95645b9adcfd678cb1d63",
            "0x0000000000000000000000000000000000000000000000000000000000001010",
            "0x000000000000000000000000291ff2d8bebee4302f006667d5af2bb7b8675e49",
            "0x0000000000000000000000005082f249cdb2f2c1ee035e4f423c46ea2dab3ab1"
          ],
          "data": "0x00000000000000000000000000000000000000000000000000003f47c62bff00000000000000000000000000000000000000000000000002bb63347ecbc14a6d00000000000000000000000000000000000000000000067476f23631528ee3da000000000000000000000000000000000000000000000002bb62f53705954b6d00000000000000000000000000000000000000000000067476f2757918bae2da",
          "blockHash": "0x4fe01781abfb6284ecf0840c47887536613d904f5f19cb162046ed0b17d4146b",
          "blockNumber": "0x2c00775",
          "transactionHash": "0x9a47f24062cc0db81d48297a16272911044a6229cbc1e6e7a1255bafdf38fafc",
          "transactionIndex": "0x2",
          "logIndex": "0x4",
          "removed": false
        }
      ],
      "status": "0x1",
      "logsBloom": "0x00000000000000000000000000000000000000000000000000000000020000000000000002000000000000000000000000008000000000000000000000000000000000000000000000000000000000800000000000000000000100000000000000000000000000000000000000000004000000000000000080000000000000000000000000000000000000000000000000000000000000000000000000000000200000000000000000000000000000000000000000020000000000000000004000000000000000000001000000000000000000000000000000100000000000000000000000000080000000000000000000000000000000000000010000100000",
      "type": "0x0",
      "effectiveGasPrice": "0x59682f0f"
    },
    {
      "transactionHash": "0x3febb03384d65cc1846834db2728b89d77b1aadfd66e89c9f94ab305aa6a55b4",
      "transactionIndex": "0x3",
      "blockHash": "0x4fe01781abfb6284ecf0840c47887536613d904f5f19cb162046ed0b17d4146b",
      "blockNumber": "0x2c00775",
      "from": "0x291ff2d8BeBeE4302F006667D5af2bB7b8675e49",
      "to": "0x6D277d651ca4B4684bDA699bbA74b685E11a48d1",
      "cumulativeGasUsed": "0x1783f1",
      "gasUsed": "0xb53d",
      "contractAddress": null,
      "logs": [
        {
          "address": "0x0000000000000000000000000000000000001010",
          "topics": [
            "0x4dfe1bbbcf077ddc3e01291eea2d5c70c2b422b415d95645b9adcfd678cb1d63",
            "0x0000000000000000000000000000000000000000000000000000000000001010",
            "0x000000000000000000000000291ff2d8bebee4302f006667d5af2bb7b8675e49",
            "0x0000000000000000000000005082f249cdb2f2c1ee035e4f423c46ea2dab3ab1"
          ],
          "data": "0x00000000000000000000000000000000000000000000000000003f4bf70e3300000000000000000000000000000000000000000000000002bb62f537058aad8e00000000000000000000000000000000000000000000067476f2757918bae2da000000000000000000000000000000000000000000000002bb62b5eb0e7c7a8e00000000000000000000000000000000000000000000067476f2b4c50fc915da",
          "blockHash": "0x4fe01781abfb6284ecf0840c47887536613d904f5f19cb162046ed0b17d4146b",
          "blockNumber": "0x2c00775",
          "transactionHash": "0x3febb03384d65cc1846834db2728b89d77b1aadfd66e89c9f94ab305aa6a55b4",
          "transactionIndex": "0x3",
          "logIndex": "0x5",
          "removed": false
        }
      ],
      "status": "0x1",
      "logsBloom": "0x00000000000000000000000000000000000000000000000000000000020000000000000002000000000000000000000000008000000000000000000000000000000000000000000000000000000000800000000000000000000100000000000000000000000000000000000000000004000000000000000080000000000000000000000000000000000000000000000000000000000000000000000000000000200000000000000000000000000000000000000000020000000000000000004000000000000000000001000000000000000000000000000000100000000000000000000000000080000000000000000000000000000000000000010000100000",
      "type": "0x0",
      "effectiveGasPrice": "0x59682f0f"
    },
    {
      "transactionHash": "0xf8c529f37a3eec38572570a452387bd6b04d1fb7092d5bca9036d560a243c666",
      "transactionIndex": "0x4",
      "blockHash": "0x4fe01781abfb6284ecf0840c47887536613d904f5f19cb162046ed0b17d4146b",
      "blockNumber": "0x2c00775",
      "from": "0x291ff2d8BeBeE4302F006667D5af2bB7b8675e49",
      "to": "0x22bAA8b6cdd31a0C5D1035d6e72043f4Ce6aF054",
      "cumulativeGasUsed": "0x183880",
      "gasUsed": "0xb48f",
      "contractAddress": null,
      "logs": [
        {
          "address": "0x22bAA8b6cdd31a0C5D1035d6e72043f4Ce6aF054",
          "topics": [
            "0x8c5be1e5ebec7d5bd14f71427d1e84f3dd0314c0f7b2291e5b200ac8c7c3b925",
            "0x000000000000000000000000291ff2d8bebee4302f006667d5af2bb7b8675e49",
            "0x0000000000000000000000006d277d651ca4b4684bda699bba74b685e11a48d1"
          ],
          "data": "0x000000000000000000000000000000000000000000000000000009184e72a000",
          "blockHash": "0x4fe01781abfb6284ecf0840c47887536613d904f5f19cb162046ed0b17d4146b",
          "blockNumber": "0x2c00775",
          "transactionHash": "0xf8c529f37a3eec38572570a452387bd6b04d1fb7092d5bca9036d560a243c666",
          "transactionIndex": "0x4",
          "logIndex": "0x6",
          "removed": false
        },
        {
          "address": "0x0000000000000000000000000000000000001010",
          "topics": [
            "0x4dfe1bbbcf077ddc3e01291eea2d5c70c2b422b415d95645b9adcfd678cb1d63",
            "0x0000000000000000000000000000000000000000000000000000000000001010",
            "0x000000000000000000000000291ff2d8bebee4302f006667d5af2bb7b8675e49",
            "0x0000000000000000000000005082f249cdb2f2c1ee035e4f423c46ea2dab3ab1"
          ],
          "data": "0x00000000000000000000000000000000000000000000000000003f0f323e4100000000000000000000000000000000000000000000000002bb62b5eb0e71dbfb00000000000000000000000000000000000000000000067476f2b4c50fc915da000000000000000000000000000000000000000000000002bb6276dbdc339afb00000000000000000000000000000000000000000000067476f2f3d4420756da",
          "blockHash": "0x4fe01781abfb6284ecf0840c47887536613d904f5f19cb162046ed0b17d4146b",
          "blockNumber": "0x2c00775",
          "transactionHash": "0xf8c529f37a3eec38572570a452387bd6b04d1fb7092d5bca9036d560a243c666",
          "transactionIndex": "0x4",
          "logIndex": "0x7",
          "removed": false
        }
      ],
      "status": "0x1",
      "logsBloom": "0x00000000000000000000000000000000000000000000000000000000020000000000000002000000000000000000000000008000000000000000000000200000000000000000000000000000000000800000000000000200000100000000000000000000000000000000000000000004000000000000000080000010000000000000000000000000000000000000000000000000000000000000000000000000220000000000000000000000000000000004000000020000000000000000004000000000000000000001000000000000000000000000000000100000000000000010000000000080080000400000000000000000000000000000010000108000",
      "type": "0x0",
      "effectiveGasPrice": "0x59682f0f"
    },
    {
      "transactionHash": "0x5762ac6515b0d72ed3e96856da0dc4ad3540d811ffb83568c45674249c2d396a",
      "transactionIndex": "0x5",
      "blockHash": "0x4fe01781abfb6284ecf0840c47887536613d904f5f19cb162046ed0b17d4146b",
      "blockNumber": "0x2c00775",
      "from": "0x291ff2d8BeBeE4302F006667D5af2bB7b8675e49",
      "to": "0x6D277d651ca4B4684bDA699bbA74b685E11a48d1",
      "cumulativeGasUsed": "0x196f44",
      "gasUsed": "0x136c4",
      "contractAddress": null,
      "logs": [
        {
          "address": "0x22bAA8b6cdd31a0C5D1035d6e72043f4Ce6aF054",
          "topics": [
            "0x8c5be1e5ebec7d5bd14f71427d1e84f3dd0314c0f7b2291e5b200ac8c7c3b925",
            "0x000000000000000000000000291ff2d8bebee4302f006667d5af2bb7b8675e49",
            "0x0000000000000000000000006d277d651ca4b4684bda699bba74b685e11a48d1"
          ],
          "data": "0x0000000000000000000000000000000000000000000000000000000000000000",
          "blockHash": "0x4fe01781abfb6284ecf0840c47887536613d904f5f19cb162046ed0b17d4146b",
          "blockNumber": "0x2c00775",
          "transactionHash": "0x5762ac6515b0d72ed3e96856da0dc4ad3540d811ffb83568c45674249c2d396a",
          "transactionIndex": "0x5",
          "logIndex": "0x8",
          "removed": false
        },
        {
          "address": "0x22bAA8b6cdd31a0C5D1035d6e72043f4Ce6aF054",
          "topics": [
            "0xddf252ad1be2c89b69c2b068fc378daa952ba7f163c4a11628f55a4df523b3ef",
            "0x000000000000000000000000291ff2d8bebee4302f006667d5af2bb7b8675e49",
            "0x0000000000000000000000006d277d651ca4b4684bda699bba74b685e11a48d1"
          ],
          "data": "0x000000000000000000000000000000000000000000000000000009184e72a000",
          "blockHash": "0x4fe01781abfb6284ecf0840c47887536613d904f5f19cb162046ed0b17d4146b",
          "blockNumber": "0x2c00775",
          "transactionHash": "0x5762ac6515b0d72ed3e96856da0dc4ad3540d811ffb83568c45674249c2d396a",
          "transactionIndex": "0x5",
          "logIndex": "0x9",
          "removed": false
        },
        {
          "address": "0x0000000000000000000000000000000000001010",
          "topics": [
            "0x4dfe1bbbcf077ddc3e01291eea2d5c70c2b422b415d95645b9adcfd678cb1d63",
            "0x0000000000000000000000000000000000000000000000000000000000001010",
            "0x000000000000000000000000291ff2d8bebee4302f006667d5af2bb7b8675e49",
            "0x0000000000000000000000005082f249cdb2f2c1ee035e4f423c46ea2dab3ab1"
          ],
          "data": "0x00000000000000000000000000000000000000000000000000006c889cadfc00000000000000000000000000000000000000000000000002bb6276dbdc29069a00000000000000000000000000000000000000000000067476f2f3d4420756da000000000000000000000000000000000000000000000002bb620a533f7b0a9a00000000000000000000000000000000000000000000067476f3605cdeb552da",
          "blockHash": "0x4fe01781abfb6284ecf0840c47887536613d904f5f19cb162046ed0b17d4146b",
          "blockNumber": "0x2c00775",
          "transactionHash": "0x5762ac6515b0d72ed3e96856da0dc4ad3540d811ffb83568c45674249c2d396a",
          "transactionIndex": "0x5",
          "logIndex": "0xa",
          "removed": false
        }
      ],
      "status": "0x1",
      "logsBloom": "0x00000000000000000000000000000000000000000000000000000000020000000000000002000000000000000000000000008000000000000000000000200000000000000000000000000008000000800000000000000200000100000000000000000000000000000000000000000004000000000000000080000010000000000000000000000000000000000000000000000000000000000000000000000000220000000000000000000000000000000004000000020000000000000000004000000002000000000001000000000000000000000000000000100000000000000010000000000080080000400000000000000000000000000000010000108000",
      "type": "0x0",
      "effectiveGasPrice": "0x59682f0f"
    },
    {
      "transactionHash": "0x21ab0f3f6523a49c7a12f72e90830bbe9080b0ef3bbe1d9d71983cbd75e22b27",
      "transactionIndex": "0x7",
      "blockHash": "0x4fe01781abfb6284ecf0840c47887536613d904f5f19cb162046ed0b17d4146b",
      "blockNumber": "0x2c00775",
      "from": "0x291ff2d8BeBeE4302F006667D5af2bB7b8675e49",
      "to": "0x6D277d651ca4B4684bDA699bbA74b685E11a48d1",
      "cumulativeGasUsed": "0x1a9398",
      "gasUsed": "0xd24c",
      "contractAddress": null,
      "logs": [
        {
          "address": "0x22bAA8b6cdd31a0C5D1035d6e72043f4Ce6aF054",
          "topics": [
            "0x8c5be1e5ebec7d5bd14f71427d1e84f3dd0314c0f7b2291e5b200ac8c7c3b925",
            "0x0000000000000000000000006d277d651ca4b4684bda699bba74b685e11a48d1",
            "0x000000000000000000000000bdfa400ec4cfd2a3c2ea2670c647127657970cea"
          ],
          "data": "0x000000000000000000000000000000000000000000000000000009184e72a000",
          "blockHash": "0x4fe01781abfb6284ecf0840c47887536613d904f5f19cb162046ed0b17d4146b",
          "blockNumber": "0x2c00775",
          "transactionHash": "0x21ab0f3f6523a49c7a12f72e90830bbe9080b0ef3bbe1d9d71983cbd75e22b27",
          "transactionIndex": "0x7",
          "logIndex": "0xd",
          "removed": false
        },
        {
          "address": "0x0000000000000000000000000000000000001010",
          "topics": [
            "0x4dfe1bbbcf077ddc3e01291eea2d5c70c2b422b415d95645b9adcfd678cb1d63",
            "0x0000000000000000000000000000000000000000000000000000000000001010",
            "0x000000000000000000000000291ff2d8bebee4302f006667d5af2bb7b8675e49",
            "0x0000000000000000000000005082f249cdb2f2c1ee035e4f423c46ea2dab3ab1"
          ],
          "data": "0x00000000000000000000000000000000000000000000000000004972017bf400000000000000000000000000000000000000000000000002bb620a533f68d51e00000000000000000000000000000000000000000000067476f37d030904cada000000000000000000000000000000000000000000000002bb61c0e13dece11e00000000000000000000000000000000000000000000067476f3c6750a80beda",
          "blockHash": "0x4fe01781abfb6284ecf0840c47887536613d904f5f19cb162046ed0b17d4146b",
          "blockNumber": "0x2c00775",
          "transactionHash": "0x21ab0f3f6523a49c7a12f72e90830bbe9080b0ef3bbe1d9d71983cbd75e22b27",
          "transactionIndex": "0x7",
          "logIndex": "0xe",
          "removed": false
        }
      ],
      "status": "0x1",
      "logsBloom": "0x00000000000000000000000000000000000000000000000000000000020000000000000002000000000000000000000000008000000000000000000000200000000000000000008000000000000000800000000000000200000100000000000000000000000000000000000000000004000000000000000080000010000000000000000000000000000000000000000000000000000000000000000000000000220000000000000000000000000000000004000000020000000000000000004000000002000004000001000000000000000000000000000000100000000000000010000000000080080000400000000000000000000000000000010000108000",
      "type": "0x0",
      "effectiveGasPrice": "0x59682f0f"
    }
  ],
  "libraries": [],
  "pending": [],
  "returns": {},
  "timestamp": 1708437011,
  "chain": 80001,
  "multi": false,
  "commit": "f40ad80"
}