{
  "transactions": [
    {
      "hash": "0xe00a6aff3f43d59ec58a756a8b272e1070585f150e0416d5288c89724e823521",
      "transactionType": "CREATE",
      "contractName": "ForwarderPool",
      "contractAddress": "0xFd28E39AFc86098E8FE6f6EE4Cb4851B9Ce89B84",
      "function": null,
      "arguments": [
        "0xbdfA400EC4CFd2a3c2Ea2670C647127657970cEa",
        "0x423853a63DBAC343caE1E7aEE6b1c4488888dd13",
        "router12fykm2xhg5ces2vmf4q2aem8c958exv3v0wmvrspa8zucrdwjedsjnnxzt"
      ],
      "transaction": {
        "type": "0x00",
        "from": "0x291ff2d8bebee4302f006667d5af2bb7b8675e49",
        "gas": "0x1c3d06",
        "value": "0x0",
        "data": "0x60806040523480156200001157600080fd5b506040516200193f3803806200193f83398101604081905262000034916200012e565b33806200005b57604051631e4fbdf760e01b81526000600482015260240160405180910390fd5b6200006681620000af565b50600480546001600160a01b038086166001600160a01b03199283161790925560058054928516929091169190911790556006620000a58282620002bd565b5050505062000389565b600080546001600160a01b038381166001600160a01b0319831681178455604051919092169283917f8be0079c531659141344cd1fd0a4f28419497f9722a3daafe3b4186f6b6457e09190a35050565b6001600160a01b03811681146200011557600080fd5b50565b634e487b7160e01b600052604160045260246000fd5b6000806000606084860312156200014457600080fd5b83516200015181620000ff565b809350506020808501516200016681620000ff565b60408601519093506001600160401b03808211156200018457600080fd5b818701915087601f8301126200019957600080fd5b815181811115620001ae57620001ae62000118565b604051601f8201601f19908116603f01168101908382118183101715620001d957620001d962000118565b816040528281528a86848701011115620001f257600080fd5b600093505b82841015620002165784840186015181850187015292850192620001f7565b60008684830101528096505050505050509250925092565b600181811c908216806200024357607f821691505b6020821081036200026457634e487b7160e01b600052602260045260246000fd5b50919050565b601f821115620002b857600081815260208120601f850160051c81016020861015620002935750805b601f850160051c820191505b81811015620002b4578281556001016200029f565b5050505b505050565b81516001600160401b03811115620002d957620002d962000118565b620002f181620002ea84546200022e565b846200026a565b602080601f831160018114620003295760008415620003105750858301515b600019600386901b1c1916600185901b178555620002b4565b600085815260208120601f198616915b828110156200035a5788860151825594840194600190910190840162000339565b5085821015620003795787850151600019600388901b60f8161c191681555b5050505050600190811b01905550565b6115a680620003996000396000f3fe60806040526004361061011e5760003560e01c806379433d8b116100a0578063a8b7c44b11610064578063a8b7c44b146102fd578063b0694a511461033d578063ef15cbda14610350578063f2fde38b14610370578063fa4c957b1461039057600080fd5b806379433d8b146102775780637fe689171461027f5780638da5cb5b1461029f57806390646b4a146102bd57806397feb926146102dd57600080fd5b806344004cc1116100e757806344004cc1146101e2578063536c6bfa1461020257806364778c1f146102225780636fb003da14610242578063715018a61461026257600080fd5b80627d3ba014610123578063116191b61461014557806318137a41146101825780631b857a6c146101a2578063373292a7146101c2575b600080fd5b34801561012f57600080fd5b5061014361013e366004610ceb565b6103b2565b005b34801561015157600080fd5b50600554610165906001600160a01b031681565b6040516001600160a01b0390911681526020015b60405180910390f35b34801561018e57600080fd5b5061014361019d366004610d24565b6103e5565b3480156101ae57600080fd5b506101436101bd366004610dfd565b61040f565b3480156101ce57600080fd5b506101436101dd366004610e4e565b610427565b3480156101ee57600080fd5b506101436101fd366004610e7a565b6104dd565b34801561020e57600080fd5b5061014361021d366004610e4e565b61055e565b34801561022e57600080fd5b5061014361023d366004610ebb565b61059c565b34801561024e57600080fd5b5061014361025d366004610f3a565b6106ed565b34801561026e57600080fd5b506101436108ef565b610143610903565b34801561028b57600080fd5b50600454610165906001600160a01b031681565b3480156102ab57600080fd5b506000546001600160a01b0316610165565b3480156102c957600080fd5b506101436102d8366004610d24565b610929565b3480156102e957600080fd5b506101436102f8366004610e4e565b610953565b34801561030957600080fd5b5061032d610318366004610d24565b60036020526000908152604090205460ff1681565b6040519015158152602001610179565b61014361034b36600461104b565b6109fc565b34801561035c57600080fd5b5061014361036b366004610dfd565b610b07565b34801561037c57600080fd5b5061014361038b366004610d24565b610b82565b34801561039c57600080fd5b506103a5610bbd565b604051610179919061111b565b6103ba610c4b565b6001600160a01b03919091166000908152600360205260409020805460ff1916911515919091179055565b6103ed610c4b565b600480546001600160a01b0319166001600160a01b0392909216919091179055565b610417610c4b565b600661042382826111ae565b5050565b3360009081526003602052604090205460ff1661045f5760405162461bcd60e51b81526004016104569061126e565b60405180910390fd5b6004805460405163095ea7b360e01b81526001600160a01b03918216928101929092526024820183905283169063095ea7b3906044016020604051808303816000875af11580156104b4573d6000803e3d6000fd5b505050506040513d601f19601f820116820180604052508101906104d891906112c0565b505050565b6104e5610c4b565b60405163a9059cbb60e01b81526001600160a01b0383811660048301526024820183905284169063a9059cbb906044016020604051808303816000875af1158015610534573d6000803e3d6000fd5b505050506040513d601f19601f8201168201806040525081019061055891906112c0565b50505050565b610566610c4b565b6040516001600160a01b0383169082156108fc029083906000818181858888f193505050501580156104d8573d6000803e3d6000fd5b3360009081526003602052604090205460ff166105cb5760405162461bcd60e51b81526004016104569061126e565b6004546001600160a01b03166105f35760405162461bcd60e51b8152600401610456906112dd565b61061d81606001516001600160a01b031673eeeeeeeeeeeeeeeeeeeeeeeeeeeeeeeeeeeeeeee1490565b15610688576004805482516040516364778c1f60e01b81526001600160a01b03909216926364778c1f9261065391869101611322565b6000604051808303818588803b15801561066c57600080fd5b505af1158015610680573d6000803e3d6000fd5b505050505050565b600480546040516364778c1f60e01b81526001600160a01b03909116916364778c1f916106b791859101611322565b600060405180830381600087803b1580156106d157600080fd5b505af11580156106e5573d6000803e3d6000fd5b505050505b50565b3360009081526003602052604090205460ff1661071c5760405162461bcd60e51b81526004016104569061126e565b6004546001600160a01b03166107445760405162461bcd60e51b8152600401610456906112dd565b61076e81606001516001600160a01b031673eeeeeeeeeeeeeeeeeeeeeeeeeeeeeeeeeeeeeeee1490565b1561080e5780514710156107dd5760405162461bcd60e51b815260206004820152603060248201527f466f72776172646572506f6f6c3a20696e73756666696369656e74206e61746960448201526f766520746f6b656e2062616c616e636560801b6064820152608401610456565b6004805482516040516337d801ed60e11b81526001600160a01b0390921692636fb003da9261065391869101611366565b805160608201516001600160a01b0316600090815260016020526040902054101561088d5760405162461bcd60e51b815260206004820152602960248201527f466f72776172646572506f6f6c3a20696e73756666696369656e7420455243326044820152680c0819195c1bdcda5d60ba1b6064820152608401610456565b805160608201516001600160a01b0316600090815260016020526040812080549091906108bb9084906113d7565b9091555050600480546040516337d801ed60e11b81526001600160a01b0390911691636fb003da916106b791859101611366565b6108f7610c4b565b6109016000610c78565b565b33600090815260026020526040812080543492906109229084906113f0565b9091555050565b610931610c4b565b600580546001600160a01b0319166001600160a01b0392909216919091179055565b6040516323b872dd60e01b8152336004820152306024820152604481018290526001600160a01b038316906323b872dd906064016020604051808303816000875af11580156109a6573d6000803e3d6000fd5b505050506040513d601f19601f820116820180604052508101906109ca91906112c0565b506001600160a01b038216600090815260016020526040812080548392906109f39084906113f0565b90915550505050565b610a04610c4b565b6000858585604051602001610a1b9392919061142c565b60405160208183030381529060405290506000600682604051602001610a42929190611459565b60408051601f1981840301815260055460208481018452600080865284518086018652600d81526c726f757465725f393632352d3160981b928101929092529351633df6a38560e11b81529295506001600160a01b0390911693637bed470a933493610aba93600193918c908c908b906004016114ef565b60206040518083038185885af1158015610ad8573d6000803e3d6000fd5b50505050506040513d601f19601f82011682018060405250810190610afd9190611557565b5050505050505050565b610b0f610c4b565b60055460405163778ae5ed60e11b81526001600160a01b039091169063ef15cbda90610b3f90849060040161111b565b6020604051808303816000875af1158015610b5e573d6000803e3d6000fd5b505050506040513d601f19601f820116820180604052508101906104239190611557565b610b8a610c4b565b6001600160a01b038116610bb457604051631e4fbdf760e01b815260006004820152602401610456565b6106ea81610c78565b60068054610bca9061112e565b80601f0160208091040260200160405190810160405280929190818152602001828054610bf69061112e565b8015610c435780601f10610c1857610100808354040283529160200191610c43565b820191906000526020600020905b815481529060010190602001808311610c2657829003601f168201915b505050505081565b6000546001600160a01b031633146109015760405163118cdaa760e01b8152336004820152602401610456565b600080546001600160a01b038381166001600160a01b0319831681178455604051919092169283917f8be0079c531659141344cd1fd0a4f28419497f9722a3daafe3b4186f6b6457e09190a35050565b6001600160a01b03811681146106ea57600080fd5b80151581146106ea57600080fd5b60008060408385031215610cfe57600080fd5b8235610d0981610cc8565b91506020830135610d1981610cdd565b809150509250929050565b600060208284031215610d3657600080fd5b8135610d4181610cc8565b9392505050565b634e487b7160e01b600052604160045260246000fd5b60405160c0810167ffffffffffffffff81118282101715610d8157610d81610d48565b60405290565b600067ffffffffffffffff80841115610da257610da2610d48565b604051601f8501601f19908116603f01168101908282118183101715610dca57610dca610d48565b81604052809350858152868686011115610de357600080fd5b858560208301376000602087830101525050509392505050565b600060208284031215610e0f57600080fd5b813567ffffffffffffffff811115610e2657600080fd5b8201601f81018413610e3757600080fd5b610e4684823560208401610d87565b949350505050565b60008060408385031215610e6157600080fd5b8235610e6c81610cc8565b946020939093013593505050565b600080600060608486031215610e8f57600080fd5b8335610e9a81610cc8565b92506020840135610eaa81610cc8565b929592945050506040919091013590565b600060a08284031215610ecd57600080fd5b60405160a0810181811067ffffffffffffffff82111715610ef057610ef0610d48565b80604052508235815260208301356020820152604083013560408201526060830135610f1b81610cc8565b60608201526080830135610f2e81610cc8565b60808201529392505050565b600060208284031215610f4c57600080fd5b813567ffffffffffffffff80821115610f6457600080fd5b9083019060c08286031215610f7857600080fd5b610f80610d5e565b8235815260208301356020820152604083013560408201526060830135610fa681610cc8565b60608201526080830135610fb981610cc8565b608082015260a083013582811115610fd057600080fd5b80840193505085601f840112610fe557600080fd5b610ff486843560208601610d87565b60a082015295945050505050565b60008083601f84011261101457600080fd5b50813567ffffffffffffffff81111561102c57600080fd5b60208301915083602082850101111561104457600080fd5b9250929050565b60008060008060006060868803121561106357600080fd5b853567ffffffffffffffff808216821461107c57600080fd5b9095506020870135908082111561109257600080fd5b61109e89838a01611002565b909650945060408801359150808211156110b757600080fd5b506110c488828901611002565b969995985093965092949392505050565b6000815180845260005b818110156110fb576020818501810151868301820152016110df565b506000602082860101526020601f19601f83011685010191505092915050565b602081526000610d4160208301846110d5565b600181811c9082168061114257607f821691505b60208210810361116257634e487b7160e01b600052602260045260246000fd5b50919050565b601f8211156104d857600081815260208120601f850160051c8101602086101561118f5750805b601f850160051c820191505b818110156106805782815560010161119b565b815167ffffffffffffffff8111156111c8576111c8610d48565b6111dc816111d6845461112e565b84611168565b602080601f83116001811461121157600084156111f95750858301515b600019600386901b1c1916600185901b178555610680565b600085815260208120601f198616915b8281101561124057888601518255948401946001909101908401611221565b508582101561125e5787850151600019600388901b60f8161c191681555b5050505050600190811b01905550565b60208082526032908201527f466f72776172646572506f6f6c3a2063616c6c6572206973206e6f74207768696040820152713a32b634b9ba32b2103337b93bb0b93232b960711b606082015260800190565b6000602082840312156112d257600080fd5b8151610d4181610cdd565b60208082526025908201527f466f72776172646572506f6f6c3a206173736574466f72776172646572206e6f6040820152641d081cd95d60da1b606082015260800190565b8151815260208083015190820152604080830151908201526060808301516001600160a01b0390811691830191909152608092830151169181019190915260a00190565b602081528151602082015260208201516040820152604082015160608201526000606083015160018060a01b0380821660808501528060808601511660a0850152505060a083015160c080840152610e4660e08401826110d5565b634e487b7160e01b600052601160045260246000fd5b818103818111156113ea576113ea6113c1565b92915050565b808201808211156113ea576113ea6113c1565b81835281816020850137506000828201602090810191909152601f909101601f19169091010190565b67ffffffffffffffff84168152604060208201526000611450604083018486611403565b95945050505050565b60408152600080845461146b8161112e565b806040860152606060018084166000811461148d57600181146114a7576114d8565b60ff1985168884015283151560051b8801830195506114d8565b8960005260208060002060005b868110156114cf5781548b82018701529084019082016114b4565b8a018501975050505b5050505050828103602084015261145081856110d5565b87815286602082015260c06040820152600061150e60c08301886110d5565b828103606084015261152081886110d5565b90508281036080840152611535818688611403565b905082810360a084015261154981856110d5565b9a9950505050505050505050565b60006020828403121561156957600080fd5b505191905056fea264697066735822122024594642a47406a160e4db94f814db465dbe2dd8dee2331e07fce41adf3c5a2f64736f6c63430008140033000000000000000000000000bdfa400ec4cfd2a3c2ea2670c647127657970cea000000000000000000000000423853a63dbac343cae1e7aee6b1c4488888dd1300000000000000000000000000000000000000000000000000000000000000600000000000000000000000000000000000000000000000000000000000000041726f75746572313266796b6d327868673563657332766d6634713261656d3863393538657876337630776d7672737061387a75637264776a6564736a6e6e787a7400000000000000000000000000000000000000000000000000000000000000",
        "nonce": "0xd4"
      },
      "additionalContracts": [],
      "isFixedGasLimit": false
    },
    {
      "hash": "0x189ff9111f6ce8ff9b8f491fc82e5e4224017fc2a2ab1d9f1812cc3dd031afd6",
      "transactionType": "CALL",
      "contractName": "ForwarderPool",
      "contractAddress": "0xFd28E39AFc86098E8FE6f6EE4Cb4851B9Ce89B84",
      "function": "setDappMetadata(string)",
      "arguments": [
        "router19y0l9k97hmjrqtcqvenattetk7uxwhjfyk56lt"
      ],
      "transaction": {
        "type": "0x00",
        "from": "0x291ff2d8bebee4302f006667d5af2bb7b8675e49",
        "to": "0xfd28e39afc86098e8fe6f6ee4cb4851b9ce89b84",
        "gas": "0x10a6d",
        "value": "0x0",
        "data": "0xef15cbda0000000000000000000000000000000000000000000000000000000000000020000000000000000000000000000000000000000000000000000000000000002d726f75746572313979306c396b3937686d6a727174637176656e61747465746b37757877686a66796b35366c7400000000000000000000000000000000000000",
        "nonce": "0xd5"
      },
      "additionalContracts": [],
      "isFixedGasLimit": false
    },
    {
      "hash": "0x593720f2d4b7eb5eda02d732f6cc883a147490a1248578aa4e849b4b275dfd12",
      "transactionType": "CALL",
      "contractName": "ForwarderPool",
      "contractAddress": "0xFd28E39AFc86098E8FE6f6EE4Cb4851B9Ce89B84",
      "function": "setForwarderRefundClaimer(uint64,string,bytes)",
      "arguments": [
        "1708471322 \u001b[2;49;39m[1.708e9]\u001b[0m",
        "router19y0l9k97hmjrqtcqvenattetk7uxwhjfyk56lt",
        "0x"
      ],
      "transaction": {
        "type": "0x00",
        "from": "0x291ff2d8bebee4302f006667d5af2bb7b8675e49",
        "to": "0xfd28e39afc86098e8fe6f6ee4cb4851b9ce89b84",
        "gas": "0x1791f",
        "value": "0x0",
        "data": "0xb0694a510000000000000000000000000000000000000000000000000000000065d5341a000000000000000000000000000000000000000000000000000000000000006000000000000000000000000000000000000000000000000000000000000000c0000000000000000000000000000000000000000000000000000000000000002d726f75746572313979306c396b3937686d6a727174637176656e61747465746b37757877686a66796b35366c74000000000000000000000000000000000000000000000000000000000000000000000000000000000000000000000000000000",
        "nonce": "0xd6"
      },
      "additionalContracts": [],
      "isFixedGasLimit": false
    },
    {
      "hash": "0xc4a9890c52c8505ca135a8aaf8255be2b819dce6625ec91321b714896f4e7f3f",
      "transactionType": "CALL",
      "contractName": "ForwarderPool",
      "contractAddress": "0xFd28E39AFc86098E8FE6f6EE4Cb4851B9Ce89B84",
      "function": "setWhitelistedForwarder(address,bool)",
      "arguments": [
        "0x291ff2d8BeBeE4302F006667D5af2bB7b8675e49",
        "true"
      ],
      "transaction": {
        "type": "0x00",
        "from": "0x291ff2d8bebee4302f006667d5af2bb7b8675e49",
        "to": "0xfd28e39afc86098e8fe6f6ee4cb4851b9ce89b84",
        "gas": "0x108cf",
        "value": "0x0",
        "data": "0x007d3ba0000000000000000000000000291ff2d8bebee4302f006667d5af2bb7b8675e490000000000000000000000000000000000000000000000000000000000000001",
        "nonce": "0xd7"
      },
      "additionalContracts": [],
      "isFixedGasLimit": false
    },
    {
      "hash": "0x637f1517baeb2dd235c03f583f4431850d0bfacef4000c6edd2a2d970294300e",
      "transactionType": "CALL",
      "contractName": "ForwarderPool",
      "contractAddress": "0xFd28E39AFc86098E8FE6f6EE4Cb4851B9Ce89B84",
      "function": "setWhitelistedForwarder(address,bool)",
      "arguments": [
        "0xcbA625Dc657CB92D85BcD2c6573605e3ea6E61a9",
        "true"
      ],
      "transaction": {
        "type": "0x00",
        "from": "0x291ff2d8bebee4302f006667d5af2bb7b8675e49",
        "to": "0xfd28e39afc86098e8fe6f6ee4cb4851b9ce89b84",
        "gas": "0xfa28",
        "value": "0x0",
        "data": "0x007d3ba0000000000000000000000000cba625dc657cb92d85bcd2c6573605e3ea6e61a90000000000000000000000000000000000000000000000000000000000000001",
        "nonce": "0xd8"
      },
      "additionalContracts": [],
      "isFixedGasLimit": false
    },
    {
      "hash": "0xc003a69830e69760480bfafd5f5289711b18636012de0f72ffbfd4746b29c477",
      "transactionType": "CALL",
      "contractName": "ERC20Token",
      "contractAddress": "0x22bAA8b6cdd31a0C5D1035d6e72043f4Ce6aF054",
      "function": "approve(address,uint256):(bool)",
      "arguments": [
        "0xFd28E39AFc86098E8FE6f6EE4Cb4851B9Ce89B84",
        "10000000000000 \u001b[2;49;39m[1e13]\u001b[0m"
      ],
      "transaction": {
        "type": "0x00",
        "from": "0x291ff2d8bebee4302f006667d5af2bb7b8675e49",
        "to": "0x22baa8b6cdd31a0c5d1035d6e72043f4ce6af054",
        "gas": "0xf964",
        "value": "0x0",
        "data": "0x095ea7b3000000000000000000000000fd28e39afc86098e8fe6f6ee4cb4851b9ce89b84000000000000000000000000000000000000000000000000000009184e72a000",
        "nonce": "0xd9"
      },
      "additionalContracts": [],
      "isFixedGasLimit": false
    },
    {
      "hash": "0x714f3adfddba6baf9b8db7e8f0f8d0ea03de2c39e6f64aea6dc637c79d7c7e56",
      "transactionType": "CALL",
      "contractName": "ForwarderPool",
      "contractAddress": "0xFd28E39AFc86098E8FE6f6EE4Cb4851B9Ce89B84",
      "function": "depositERC20(address,uint256)",
      "arguments": [
        "0x22bAA8b6cdd31a0C5D1035d6e72043f4Ce6aF054",
        "10000000000000 \u001b[2;49;39m[1e13]\u001b[0m"
      ],
      "transaction": {
        "type": "0x00",
        "from": "0x291ff2d8bebee4302f006667d5af2bb7b8675e49",
        "to": "0xfd28e39afc86098e8fe6f6ee4cb4851b9ce89b84",
        "gas": "0x1adb8",
        "value": "0x0",
        "data": "0x97feb92600000000000000000000000022baa8b6cdd31a0c5d1035d6e72043f4ce6af054000000000000000000000000000000000000000000000000000009184e72a000",
        "nonce": "0xda"
      },
      "additionalContracts": [],
      "isFixedGasLimit": false
    },
    {
      "hash": "0x5379937c4f77c33ff6c3bb52b2655276919a6f4bd924f7c2aa088f9c2a378648",
      "transactionType": "CALL",
      "contractName": "ForwarderPool",
      "contractAddress": "0xFd28E39AFc86098E8FE6f6EE4Cb4851B9Ce89B84",
      "function": "approveAssetForwarder(address,uint256)",
      "arguments": [
        "0x22bAA8b6cdd31a0C5D1035d6e72043f4Ce6aF054",
        "10000000000000 \u001b[2;49;39m[1e13]\u001b[0m"
      ],
      "transaction": {
        "type": "0x00",
        "from": "0x291ff2d8bebee4302f006667d5af2bb7b8675e49",
        "to": "0xfd28e39afc86098e8fe6f6ee4cb4851b9ce89b84",
        "gas": "0x122f3",
        "value": "0x0",
        "data": "0x373292a700000000000000000000000022baa8b6cdd31a0c5d1035d6e72043f4ce6af054000000000000000000000000000000000000000000000000000009184e72a000",
        "nonce": "0xdb"
      },
      "additionalContracts": [],
      "isFixedGasLimit": false
    }
  ],
  "receipts": [
    {
      "transactionHash": "0xe00a6aff3f43d59ec58a756a8b272e1070585f150e0416d5288c89724e823521",
      "transactionIndex": "0x5",
      "blockHash": "0x01f454d58d2ebce23ac51e270409d2c66b779b4caed4cfaded8737440f57fee9",
      "blockNumber": "0x2c07df2",
      "from": "0x291ff2d8BeBeE4302F006667D5af2bB7b8675e49",
      "to": null,
      "cumulativeGasUsed": "0x22f2a2",
      "gasUsed": "0x15ba6c",
      "contractAddress": "0xFd28E39AFc86098E8FE6f6EE4Cb4851B9Ce89B84",
      "logs": [
        {
          "address": "0xFd28E39AFc86098E8FE6f6EE4Cb4851B9Ce89B84",
          "topics": [
            "0x8be0079c531659141344cd1fd0a4f28419497f9722a3daafe3b4186f6b6457e0",
            "0x0000000000000000000000000000000000000000000000000000000000000000",
            "0x000000000000000000000000291ff2d8bebee4302f006667d5af2bb7b8675e49"
          ],
          "data": "0x",
          "blockHash": "0x01f454d58d2ebce23ac51e270409d2c66b779b4caed4cfaded8737440f57fee9",
          "blockNumber": "0x2c07df2",
          "transactionHash": "0xe00a6aff3f43d59ec58a756a8b272e1070585f150e0416d5288c89724e823521",
          "transactionIndex": "0x5",
          "logIndex": "0xf",
          "removed": false
        },
        {
          "address": "0x0000000000000000000000000000000000001010",
          "topics": [
            "0x4dfe1bbbcf077ddc3e01291eea2d5c70c2b422b415d95645b9adcfd678cb1d63",
            "0x0000000000000000000000000000000000000000000000000000000000001010",
            "0x000000000000000000000000291ff2d8bebee4302f006667d5af2bb7b8675e49",
            "0x000000000000000000000000c275dc8be39f50d12f66b6a63629c39da5bae5bd"
          ],
          "data": "0x000000000000000000000000000000000000000000000000000796a74519d400000000000000000000000000000000000000000000000002bb61c0e13de08eaa00000000000000000000000000000000000000000000144575edd991f0922648000000000000000000000000000000000000000000000002bb5a2a39f8c6baaa00000000000000000000000000000000000000000000144575f5703935abfa48",
          "blockHash": "0x01f454d58d2ebce23ac51e270409d2c66b779b4caed4cfaded8737440f57fee9",
          "blockNumber": "0x2c07df2",
          "transactionHash": "0xe00a6aff3f43d59ec58a756a8b272e1070585f150e0416d5288c89724e823521",
          "transactionIndex": "0x5",
          "logIndex": "0x10",
          "removed": false
        }
      ],
      "status": "0x1",
      "logsBloom": "0x00000000000000000000000000000000000000000000000000800000000000000000000000000000000000000000000000008000002000000000000000000000000000000000000000000000000000800001000000000000040100000000000000000000020000000000000000000804020000000000000080000000000000400000000000000000000000000000000000000000000000000000000000000000200000000000000000000000000000000000000000020000000040800000004000000000000000000001000000000000000000000000020000100000000020000000000000000000000000000000000000000000000000000000010000100000",
      "type": "0x0",
      "effectiveGasPrice": "0x59682f10"
    },
    {
      "transactionHash": "0x189ff9111f6ce8ff9b8f491fc82e5e4224017fc2a2ab1d9f1812cc3dd031afd6",
      "transactionIndex": "0x6",
      "blockHash": "0x01f454d58d2ebce23ac51e270409d2c66b779b4caed4cfaded8737440f57fee9",
      "blockNumber": "0x2c07df2",
      "from": "0x291ff2d8BeBeE4302F006667D5af2bB7b8675e49",
      "to": "0xFd28E39AFc86098E8FE6f6EE4Cb4851B9Ce89B84",
      "cumulativeGasUsed": "0x23b386",
      "gasUsed": "0xc0e4",
      "contractAddress": null,
      "logs": [
        {
          "address": "0x423853a63DBAC343caE1E7aEE6b1c4488888dd13",
          "topics": [
            "0x1ff6cbf099d2cd90494426a312eae3d52a88116b0ee9f37e074072a79a233489",
            "0x0000000000000000000000000000000000000000000000000000000000000361"
          ],
          "data": "0x000000000000000000000000fd28e39afc86098e8fe6f6ee4cb4851b9ce89b84000000000000000000000000000000000000000000000000000000000000006000000000000000000000000000000000000000000000000000000000000000a000000000000000000000000000000000000000000000000000000000000000053830303031000000000000000000000000000000000000000000000000000000000000000000000000000000000000000000000000000000000000000000002d726f75746572313979306c396b3937686d6a727174637176656e61747465746b37757877686a66796b35366c7400000000000000000000000000000000000000",
          "blockHash": "0x01f454d58d2ebce23ac51e270409d2c66b779b4caed4cfaded8737440f57fee9",
          "blockNumber": "0x2c07df2",
          "transactionHash": "0x189ff9111f6ce8ff9b8f491fc82e5e4224017fc2a2ab1d9f1812cc3dd031afd6",
          "transactionIndex": "0x6",
          "logIndex": "0x11",
          "removed": false
        },
        {
          "address": "0x0000000000000000000000000000000000001010",
          "topics": [
            "0x4dfe1bbbcf077ddc3e01291eea2d5c70c2b422b415d95645b9adcfd678cb1d63",
            "0x0000000000000000000000000000000000000000000000000000000000001010",
            "0x000000000000000000000000291ff2d8bebee4302f006667d5af2bb7b8675e49",
            "0x000000000000000000000000c275dc8be39f50d12f66b6a63629c39da5bae5bd"
          ],
          "data": "0x0000000000000000000000000000000000000000000000000000435dc409dc00000000000000000000000000000000000000000000000002bb5a2a39f76b13ea00000000000000000000000000000000000000000000144575f5703935abfa48000000000000000000000000000000000000000000000002bb59e6dc336137ea00000000000000000000000000000000000000000000144575f5b396f9b5d648",
          "blockHash": "0x01f454d58d2ebce23ac51e270409d2c66b779b4caed4cfaded8737440f57fee9",
          "blockNumber": "0x2c07df2",
          "transactionHash": "0x189ff9111f6ce8ff9b8f491fc82e5e4224017fc2a2ab1d9f1812cc3dd031afd6",
          "transactionIndex": "0x6",
          "logIndex": "0x12",
          "removed": false
        }
      ],
      "status": "0x1",
      "logsBloom": "0x00000000000000000000000000000000000000000000000000000000000000000000000000008000000000000000000000008000002000000000000000000000000000000000000000000000000000840000000000000000040100000000000000000000000000000000000000000004000000080000800080000000000000000000000000000000000000000008000000000000000000000000000000000000200000000000000000000000004000000000000000020000000040000000104000000000000000000001000000000000000000800000000000100000000000000000000000020000000000000000000000000000000000000000010000100000",
      "type": "0x0",
      "effectiveGasPrice": "0x59682f10"
    },
    {
      "transactionHash": "0x593720f2d4b7eb5eda02d732f6cc883a147490a1248578aa4e849b4b275dfd12",
      "transactionIndex": "0x7",
      "blockHash": "0x01f454d58d2ebce23ac51e270409d2c66b779b4caed4cfaded8737440f57fee9",
      "blockNumber": "0x2c07df2",
      "from": "0x291ff2d8BeBeE4302F006667D5af2bB7b8675e49",
      "to": "0xFd28E39AFc86098E8FE6f6EE4Cb4851B9Ce89B84",
      "cumulativeGasUsed": "0x24c48e",
      "gasUsed": "0x11108",
      "contractAddress": null,
      "logs": [
        {
          "address": "0x423853a63DBAC343caE1E7aEE6b1c4488888dd13",
          "topics": [
            "0xfe97fc293d7232e604aad58a3d02e21ee253fa0462586ea83bf3d6a84d987a6a",
            "0x0000000000000000000000000000000000000000000000000000000000000362"
          ],
          "data": "0x00000000000000000000000000000000000000000000000000000000000000010000000000000000000000000000000000000000000000000000000000000000000000000000000000000000fd28e39afc86098e8fe6f6ee4cb4851b9ce89b8400000000000000000000000000000000000000000000000000000000000001000000000000000000000000000000000000000000000000000000000000000140000000000000000000000000000000000000000000000000000000000000018000000000000000000000000000000000000000000000000000000000000001a000000000000000000000000000000000000000000000000000000000000001c000000000000000000000000000000000000000000000000000000000000000053830303031000000000000000000000000000000000000000000000000000000000000000000000000000000000000000000000000000000000000000000000d726f757465725f393632352d3100000000000000000000000000000000000000000000000000000000000000000000000000000000000000000000000000000000000000000000000000000000000000000000000000000000000000000000000000000000000000000000000000000000000000000000000000000000000180000000000000000000000000000000000000000000000000000000000000004000000000000000000000000000000000000000000000000000000000000000c00000000000000000000000000000000000000000000000000000000000000041726f75746572313266796b6d327868673563657332766d6634713261656d3863393538657876337630776d7672737061387a75637264776a6564736a6e6e787a740000000000000000000000000000000000000000000000000000000000000000000000000000000000000000000000000000000000000000000000000000a00000000000000000000000000000000000000000000000000000000065d5341a0000000000000000000000000000000000000000000000000000000000000040000000000000000000000000000000000000000000000000000000000000002d726f75746572313979306c396b3937686d6a727174637176656e61747465746b37757877686a66796b35366c7400000000000000000000000000000000000000",
          "blockHash": "0x01f454d58d2ebce23ac51e270409d2c66b779b4caed4cfaded8737440f57fee9",
          "blockNumber": "0x2c07df2",
          "transactionHash": "0x593720f2d4b7eb5eda02d732f6cc883a147490a1248578aa4e849b4b275dfd12",
          "transactionIndex": "0x7",
          "logIndex": "0x13",
          "removed": false
        },
        {
          "address": "0x0000000000000000000000000000000000001010",
          "topics": [
            "0x4dfe1bbbcf077ddc3e01291eea2d5c70c2b422b415d95645b9adcfd678cb1d63",
            "0x0000000000000000000000000000000000000000000000000000000000001010",
            "0x000000000000000000000000291ff2d8bebee4302f006667d5af2bb7b8675e49",
            "0x000000000000000000000000c275dc8be39f50d12f66b6a63629c39da5bae5bd"
          ],
          "data": "0x00000000000000000000000000000000000000000000000000005f5ae5607800000000000000000000000000000000000000000000000002bb59e6dc335529aa00000000000000000000000000000000000000000000144575f5b396f9b5d648000000000000000000000000000000000000000000000002bb5987814df4b1aa00000000000000000000000000000000000000000000144575f612f1df164e48",
          "blockHash": "0x01f454d58d2ebce23ac51e270409d2c66b779b4caed4cfaded8737440f57fee9",
          "blockNumber": "0x2c07df2",
          "transactionHash": "0x593720f2d4b7eb5eda02d732f6cc883a147490a1248578aa4e849b4b275dfd12",
          "transactionIndex": "0x7",
          "logIndex": "0x14",
          "removed": false
        }
      ],
      "status": "0x1",
      "logsBloom": "0x00000000008000000000000000000000000000000000008000000000000010000000000000000100000000000000000000008000002000000000000000000000000000000000000000000000000000840000000000100000040100000000400000000000000000000000000000000004000000000000000080000000000000000000000000000000000000000008000000000000000000000000000000000000200000000000000000000000000000000000000000020000000040000000004000000000000000000001000000000000000000800000000000100000000000000000000000000000000000000000000000000000000000000000010000100000",
      "type": "0x0",
      "effectiveGasPrice": "0x59682f10"
    },
    {
      "transactionHash": "0xc4a9890c52c8505ca135a8aaf8255be2b819dce6625ec91321b714896f4e7f3f",
      "transactionIndex": "0x8",
      "blockHash": "0x01f454d58d2ebce23ac51e270409d2c66b779b4caed4cfaded8737440f57fee9",
      "blockNumber": "0x2c07df2",
      "from": "0x291ff2d8BeBeE4302F006667D5af2bB7b8675e49",
      "to": "0xFd28E39AFc86098E8FE6f6EE4Cb4851B9Ce89B84",
      "cumulativeGasUsed": "0x25799f",
      "gasUsed": "0xb511",
      "contractAddress": null,
      "logs": [
        {
          "address": "0x0000000000000000000000000000000000001010",
          "topics": [
            "0x4dfe1bbbcf077ddc3e01291eea2d5c70c2b422b415d95645b9adcfd678cb1d63",
            "0x0000000000000000000000000000000000000000000000000000000000001010",
            "0x000000000000000000000000291ff2d8bebee4302f006667d5af2bb7b8675e49",
            "0x000000000000000000000000c275dc8be39f50d12f66b6a63629c39da5bae5bd"
          ],
          "data": "0x00000000000000000000000000000000000000000000000000003f3c99261f00000000000000000000000000000000000000000000000002bb5987814de3a12a00000000000000000000000000000000000000000000144575f612f1df164e48000000000000000000000000000000000000000000000002bb594844b4bd822a00000000000000000000000000000000000000000000144575f6522e783c6d48",
          "blockHash": "0x01f454d58d2ebce23ac51e270409d2c66b779b4caed4cfaded8737440f57fee9",
          "blockNumber": "0x2c07df2",
          "transactionHash": "0xc4a9890c52c8505ca135a8aaf8255be2b819dce6625ec91321b714896f4e7f3f",
          "transactionIndex": "0x8",
          "logIndex": "0x15",
          "removed": false
        }
      ],
      "status": "0x1",
      "logsBloom": "0x00000000000000000000000000000000000000000000000000000000000000000000000000000000000000000000000000008000002000000000000000000000000000000000000000000000000000800000000000000000040100000000000000000000000000000000000000000004000000000000000080000000000000000000000000000000000000000000000000000000000000000000000000000000200000000000000000000000000000000000000000020000000040000000004000000000000000000001000000000000000000000000000000100000000000000000000000000000000000000000000000000000000000000000010000100000",
      "type": "0x0",
      "effectiveGasPrice": "0x59682f10"
    },
    {
      "transactionHash": "0x637f1517baeb2dd235c03f583f4431850d0bfacef4000c6edd2a2d970294300e",
      "transactionIndex": "0x9",
      "blockHash": "0x01f454d58d2ebce23ac51e270409d2c66b779b4caed4cfaded8737440f57fee9",
      "blockNumber": "0x2c07df2",
      "from": "0x291ff2d8BeBeE4302F006667D5af2bB7b8675e49",
      "to": "0xFd28E39AFc86098E8FE6f6EE4Cb4851B9Ce89B84",
      "cumulativeGasUsed": "0x262ebc",
      "gasUsed": "0xb51d",
      "contractAddress": null,
      "logs": [
        {
          "address": "0x0000000000000000000000000000000000001010",
          "topics": [
            "0x4dfe1bbbcf077ddc3e01291eea2d5c70c2b422b415d95645b9adcfd678cb1d63",
            "0x0000000000000000000000000000000000000000000000000000000000001010",
            "0x000000000000000000000000291ff2d8bebee4302f006667d5af2bb7b8675e49",
            "0x000000000000000000000000c275dc8be39f50d12f66b6a63629c39da5bae5bd"
          ],
          "data": "0x00000000000000000000000000000000000000000000000000003f40ca085300000000000000000000000000000000000000000000000002bb594844b4b2311a00000000000000000000000000000000000000000000144575f6522e783c6d48000000000000000000000000000000000000000000000002bb590903eaa9de1a00000000000000000000000000000000000000000000144575f6916f4244c048",
          "blockHash": "0x01f454d58d2ebce23ac51e270409d2c66b779b4caed4cfaded8737440f57fee9",
          "blockNumber": "0x2c07df2",
          "transactionHash": "0x637f1517baeb2dd235c03f583f4431850d0bfacef4000c6edd2a2d970294300e",
          "transactionIndex": "0x9",
          "logIndex": "0x16",
          "removed": false
        }
      ],
      "status": "0x1",
      "logsBloom": "0x00000000000000000000000000000000000000000000000000000000000000000000000000000000000000000000000000008000002000000000000000000000000000000000000000000000000000800000000000000000040100000000000000000000000000000000000000000004000000000000000080000000000000000000000000000000000000000000000000000000000000000000000000000000200000000000000000000000000000000000000000020000000040000000004000000000000000000001000000000000000000000000000000100000000000000000000000000000000000000000000000000000000000000000010000100000",
      "type": "0x0",
      "effectiveGasPrice": "0x59682f10"
    },
    {
      "transactionHash": "0xc003a69830e69760480bfafd5f5289711b18636012de0f72ffbfd4746b29c477",
      "transactionIndex": "0xa",
      "blockHash": "0x01f454d58d2ebce23ac51e270409d2c66b779b4caed4cfaded8737440f57fee9",
      "blockNumber": "0x2c07df2",
      "from": "0x291ff2d8BeBeE4302F006667D5af2bB7b8675e49",
      "to": "0x22bAA8b6cdd31a0C5D1035d6e72043f4Ce6aF054",
      "cumulativeGasUsed": "0x26e34b",
      "gasUsed": "0xb48f",
      "contractAddress": null,
      "logs": [
        {
          "address": "0x22bAA8b6cdd31a0C5D1035d6e72043f4Ce6aF054",
          "topics": [
            "0x8c5be1e5ebec7d5bd14f71427d1e84f3dd0314c0f7b2291e5b200ac8c7c3b925",
            "0x000000000000000000000000291ff2d8bebee4302f006667d5af2bb7b8675e49",
            "0x000000000000000000000000fd28e39afc86098e8fe6f6ee4cb4851b9ce89b84"
          ],
          "data": "0x000000000000000000000000000000000000000000000000000009184e72a000",
          "blockHash": "0x01f454d58d2ebce23ac51e270409d2c66b779b4caed4cfaded8737440f57fee9",
          "blockNumber": "0x2c07df2",
          "transactionHash": "0xc003a69830e69760480bfafd5f5289711b18636012de0f72ffbfd4746b29c477",
          "transactionIndex": "0xa",
          "logIndex": "0x17",
          "removed": false
        },
        {
          "address": "0x0000000000000000000000000000000000001010",
          "topics": [
            "0x4dfe1bbbcf077ddc3e01291eea2d5c70c2b422b415d95645b9adcfd678cb1d63",
            "0x0000000000000000000000000000000000000000000000000000000000001010",
            "0x000000000000000000000000291ff2d8bebee4302f006667d5af2bb7b8675e49",
            "0x000000000000000000000000c275dc8be39f50d12f66b6a63629c39da5bae5bd"
          ],
          "data": "0x00000000000000000000000000000000000000000000000000003f0f323e4100000000000000000000000000000000000000000000000002bb590903ea9e8c4a00000000000000000000000000000000000000000000144575f6916f4244c048000000000000000000000000000000000000000000000002bb58c9f4b8604b4a00000000000000000000000000000000000000000000144575f6d07e74830148",
          "blockHash": "0x01f454d58d2ebce23ac51e270409d2c66b779b4caed4cfaded8737440f57fee9",
          "blockNumber": "0x2c07df2",
          "transactionHash": "0xc003a69830e69760480bfafd5f5289711b18636012de0f72ffbfd4746b29c477",
          "transactionIndex": "0xa",
          "logIndex": "0x18",
          "removed": false
        }
      ],
      "status": "0x1",
      "logsBloom": "0x00000000000000000000000000000000000000000000000000000000010000000000000000000000000000000000000000008000002000000000000000200000000000000000000000000000000000800000080000000200040100000000000000000000000000000000000000000004000000000000000080000010000000000000100000000000000000000000000000000000000000000000000000000000220000000000000000000000000000000000000000020000000040000000004000000000000000000001000000000000000000000000000000100000000000000010000000000000000000400000000000000000000000000000010000100000",
      "type": "0x0",
      "effectiveGasPrice": "0x59682f10"
    },
    {
      "transactionHash": "0x714f3adfddba6baf9b8db7e8f0f8d0ea03de2c39e6f64aea6dc637c79d7c7e56",
      "transactionIndex": "0xd",
      "blockHash": "0x01f454d58d2ebce23ac51e270409d2c66b779b4caed4cfaded8737440f57fee9",
      "blockNumber": "0x2c07df2",
      "from": "0x291ff2d8BeBeE4302F006667D5af2bB7b8675e49",
      "to": "0xFd28E39AFc86098E8FE6f6EE4Cb4851B9Ce89B84",
      "cumulativeGasUsed": "0x2e4f8b",
      "gasUsed": "0x1371d",
      "contractAddress": null,
      "logs": [
        {
          "address": "0x22bAA8b6cdd31a0C5D1035d6e72043f4Ce6aF054",
          "topics": [
            "0x8c5be1e5ebec7d5bd14f71427d1e84f3dd0314c0f7b2291e5b200ac8c7c3b925",
            "0x000000000000000000000000291ff2d8bebee4302f006667d5af2bb7b8675e49",
            "0x000000000000000000000000fd28e39afc86098e8fe6f6ee4cb4851b9ce89b84"
          ],
          "data": "0x0000000000000000000000000000000000000000000000000000000000000000",
          "blockHash": "0x01f454d58d2ebce23ac51e270409d2c66b779b4caed4cfaded8737440f57fee9",
          "blockNumber": "0x2c07df2",
          "transactionHash": "0x714f3adfddba6baf9b8db7e8f0f8d0ea03de2c39e6f64aea6dc637c79d7c7e56",
          "transactionIndex": "0xd",
          "logIndex": "0x26",
          "removed": false
        },
        {
          "address": "0x22bAA8b6cdd31a0C5D1035d6e72043f4Ce6aF054",
          "topics": [
            "0xddf252ad1be2c89b69c2b068fc378daa952ba7f163c4a11628f55a4df523b3ef",
            "0x000000000000000000000000291ff2d8bebee4302f006667d5af2bb7b8675e49",
            "0x000000000000000000000000fd28e39afc86098e8fe6f6ee4cb4851b9ce89b84"
          ],
          "data": "0x000000000000000000000000000000000000000000000000000009184e72a000",
          "blockHash": "0x01f454d58d2ebce23ac51e270409d2c66b779b4caed4cfaded8737440f57fee9",
          "blockNumber": "0x2c07df2",
          "transactionHash": "0x714f3adfddba6baf9b8db7e8f0f8d0ea03de2c39e6f64aea6dc637c79d7c7e56",
          "transactionIndex": "0xd",
          "logIndex": "0x27",
          "removed": false
        },
        {
          "address": "0x0000000000000000000000000000000000001010",
          "topics": [
            "0x4dfe1bbbcf077ddc3e01291eea2d5c70c2b422b415d95645b9adcfd678cb1d63",
            "0x0000000000000000000000000000000000000000000000000000000000001010",
            "0x000000000000000000000000291ff2d8bebee4302f006667d5af2bb7b8675e49",
            "0x000000000000000000000000c275dc8be39f50d12f66b6a63629c39da5bae5bd"
          ],
          "data": "0x00000000000000000000000000000000000000000000000000006ca7b1e65300000000000000000000000000000000000000000000000002bb58c9f4b855025a00000000000000000000000000000000000000000000144575f8fb7e597c6e48000000000000000000000000000000000000000000000002bb585d4d066eaf5a00000000000000000000000000000000000000000000144575f968260b62c148",
          "blockHash": "0x01f454d58d2ebce23ac51e270409d2c66b779b4caed4cfaded8737440f57fee9",
          "blockNumber": "0x2c07df2",
          "transactionHash": "0x714f3adfddba6baf9b8db7e8f0f8d0ea03de2c39e6f64aea6dc637c79d7c7e56",
          "transactionIndex": "0xd",
          "logIndex": "0x28",
          "removed": false
        }
      ],
      "status": "0x1",
      "logsBloom": "0x00000000000000000000000000000000000000000000000000000000010000000000000000000000000000000000000000008000002000000000000000200000000000000000000000000008000000800000080000000200040100000000000000000000000000000000000000000004000000000000000080000010000000000000100000000000000000000000000000000000000000000000000000000000220000000000000000000000000000000000000000020000000040000000004000000002000000000001000000000000000000000000000000100000000000000010000000000000000000400000000000000000000000000000010000100000",
      "type": "0x0",
      "effectiveGasPrice": "0x59682f10"
    },
    {
      "transactionHash": "0x5379937c4f77c33ff6c3bb52b2655276919a6f4bd924f7c2aa088f9c2a378648",
      "transactionIndex": "0xe",
      "blockHash": "0x01f454d58d2ebce23ac51e270409d2c66b779b4caed4cfaded8737440f57fee9",
      "blockNumber": "0x2c07df2",
      "from": "0x291ff2d8BeBeE4302F006667D5af2bB7b8675e49",
      "to": "0xFd28E39AFc86098E8FE6f6EE4Cb4851B9Ce89B84",
      "cumulativeGasUsed": "0x2f2230",
      "gasUsed": "0xd2a5",
      "contractAddress": null,
      "logs": [
        {
          "address": "0x22bAA8b6cdd31a0C5D1035d6e72043f4Ce6aF054",
          "topics": [
            "0x8c5be1e5ebec7d5bd14f71427d1e84f3dd0314c0f7b2291e5b200ac8c7c3b925",
            "0x000000000000000000000000fd28e39afc86098e8fe6f6ee4cb4851b9ce89b84",
            "0x000000000000000000000000bdfa400ec4cfd2a3c2ea2670c647127657970cea"
          ],
          "data": "0x000000000000000000000000000000000000000000000000000009184e72a000",
          "blockHash": "0x01f454d58d2ebce23ac51e270409d2c66b779b4caed4cfaded8737440f57fee9",
          "blockNumber": "0x2c07df2",
          "transactionHash": "0x5379937c4f77c33ff6c3bb52b2655276919a6f4bd924f7c2aa088f9c2a378648",
          "transactionIndex": "0xe",
          "logIndex": "0x29",
          "removed": false
        },
        {
          "address": "0x0000000000000000000000000000000000001010",
          "topics": [
            "0x4dfe1bbbcf077ddc3e01291eea2d5c70c2b422b415d95645b9adcfd678cb1d63",
            "0x0000000000000000000000000000000000000000000000000000000000001010",
            "0x000000000000000000000000291ff2d8bebee4302f006667d5af2bb7b8675e49",
            "0x000000000000000000000000c275dc8be39f50d12f66b6a63629c39da5bae5bd"
          ],
          "data": "0x0000000000000000000000000000000000000000000000000000499116b44b00000000000000000000000000000000000000000000000002bb585d4d065b3d8a00000000000000000000000000000000000000000000144575f968260b62c148000000000000000000000000000000000000000000000002bb5813bbefa6f28a00000000000000000000000000000000000000000000144575f9b1b722170c48",
          "blockHash": "0x01f454d58d2ebce23ac51e270409d2c66b779b4caed4cfaded8737440f57fee9",
          "blockNumber": "0x2c07df2",
          "transactionHash": "0x5379937c4f77c33ff6c3bb52b2655276919a6f4bd924f7c2aa088f9c2a378648",
          "transactionIndex": "0xe",
          "logIndex": "0x2a",
          "removed": false
        }
      ],
      "status": "0x1",
      "logsBloom": "0x00000000000000000000000000000000000000000000000000000000010000000000000000000000000000000000000000008000002000000000000000200000000000000000008000000000000000800000080000000200040100000000000000000000000000000000000000000004000000000000000080000010000000000000100000000000000000000000000000000000000000000000000000000000220000000000000000000000000000000000000000020000000040000000004000000002000004000001000000000000000000000000000000100000000000000010000000000000000000400000000000000000000000000000010000100000",
      "type": "0x0",
      "effectiveGasPrice": "0x59682f10"
    }
  ],
  "libraries": [],
  "pending": [],
  "returns": {},
  "timestamp": 1708504955,
  "chain": 80001,
  "multi": false,
  "commit": "f40ad80"
}