{
  "transactions": [
    {
      "hash": "0xc1424826e283d941c8d54f80a84b74fdb0367ec5a9162d13b88c74c5e2206950",
      "transactionType": "CREATE",
      "contractName": "ForwarderPool",
      "contractAddress": "0x5A3B9d460D209577A53842f7ce29ac7635b3a34b",
      "function": null,
      "arguments": null,
      "transaction": {
        "type": "0x00",
        "from": "0x291ff2d8bebee4302f006667d5af2bb7b8675e49",
        "gas": "0x112a37",
        "value": "0x0",
        "data": "0x608060405234801561001057600080fd5b50338061003757604051631e4fbdf760e01b81526000600482015260240160405180910390fd5b61004081610046565b50610096565b600080546001600160a01b038381166001600160a01b0319831681178455604051919092169283917f8be0079c531659141344cd1fd0a4f28419497f9722a3daafe3b4186f6b6457e09190a35050565b610e39806100a56000396000f3fe6080604052600436106100dd5760003560e01c8063715018a61161007f5780638da5cb5b116100595780638da5cb5b1461023e57806397feb9261461025c5780639b5efa8d1461027c578063f2fde38b1461029c57600080fd5b8063715018a6146101e957806379433d8b146101fe5780637fe689171461020657600080fd5b806344004cc1116100bb57806344004cc114610169578063536c6bfa1461018957806364778c1f146101a95780636fb003da146101c957600080fd5b806318137a41146100e257806323d5dc3614610104578063373292a714610149575b600080fd5b3480156100ee57600080fd5b506101026100fd366004610966565b6102bc565b005b34801561011057600080fd5b5061013461011f366004610966565b60036020526000908152604090205460ff1681565b60405190151581526020015b60405180910390f35b34801561015557600080fd5b5061010261016436600461098a565b6102e6565b34801561017557600080fd5b506101026101843660046109b6565b61039c565b34801561019557600080fd5b506101026101a436600461098a565b61041d565b3480156101b557600080fd5b506101026101c4366004610a67565b61045b565b3480156101d557600080fd5b506101026101e4366004610ae6565b6105ac565b3480156101f557600080fd5b50610102610783565b610102610797565b34801561021257600080fd5b50600454610226906001600160a01b031681565b6040516001600160a01b039091168152602001610140565b34801561024a57600080fd5b506000546001600160a01b0316610226565b34801561026857600080fd5b5061010261027736600461098a565b6107bd565b34801561028857600080fd5b50610102610297366004610bf9565b610866565b3480156102a857600080fd5b506101026102b7366004610966565b610899565b6102c46108d4565b600480546001600160a01b0319166001600160a01b0392909216919091179055565b3360009081526003602052604090205460ff1661031e5760405162461bcd60e51b815260040161031590610c32565b60405180910390fd5b6004805460405163095ea7b360e01b81526001600160a01b03918216928101929092526024820183905283169063095ea7b3906044016020604051808303816000875af1158015610373573d6000803e3d6000fd5b505050506040513d601f19601f820116820180604052508101906103979190610c81565b505050565b6103a46108d4565b60405163a9059cbb60e01b81526001600160a01b0383811660048301526024820183905284169063a9059cbb906044016020604051808303816000875af11580156103f3573d6000803e3d6000fd5b505050506040513d601f19601f820116820180604052508101906104179190610c81565b50505050565b6104256108d4565b6040516001600160a01b0383169082156108fc029083906000818181858888f19350505050158015610397573d6000803e3d6000fd5b3360009081526003602052604090205460ff1661048a5760405162461bcd60e51b815260040161031590610c32565b6004546001600160a01b03166104b25760405162461bcd60e51b815260040161031590610c9e565b6104dc81606001516001600160a01b031673eeeeeeeeeeeeeeeeeeeeeeeeeeeeeeeeeeeeeeee1490565b15610547576004805482516040516364778c1f60e01b81526001600160a01b03909216926364778c1f9261051291869101610ce3565b6000604051808303818588803b15801561052b57600080fd5b505af115801561053f573d6000803e3d6000fd5b505050505050565b600480546040516364778c1f60e01b81526001600160a01b03909116916364778c1f9161057691859101610ce3565b600060405180830381600087803b15801561059057600080fd5b505af11580156105a4573d6000803e3d6000fd5b505050505b50565b3360009081526003602052604090205460ff166105db5760405162461bcd60e51b815260040161031590610c32565b6004546001600160a01b03166106035760405162461bcd60e51b815260040161031590610c9e565b61062d81606001516001600160a01b031673eeeeeeeeeeeeeeeeeeeeeeeeeeeeeeeeeeeeeeee1490565b156106a157805147101561069c5760405162461bcd60e51b815260206004820152603060248201527f466f72776172646572506f6f6c3a20696e73756666696369656e74206e61746960448201526f766520746f6b656e2062616c616e636560801b6064820152608401610315565b610754565b805160608201516001600160a01b031660009081526001602052604090205410156107205760405162461bcd60e51b815260206004820152602960248201527f466f72776172646572506f6f6c3a20696e73756666696369656e7420455243326044820152680c0819195c1bdcda5d60ba1b6064820152608401610315565b805160608201516001600160a01b03166000908152600160205260408120805490919061074e908490610d3d565b90915550505b600480546040516337d801ed60e11b81526001600160a01b0390911691636fb003da9161057691859101610d56565b61078b6108d4565b6107956000610901565b565b33600090815260026020526040812080543492906107b6908490610df0565b9091555050565b6040516323b872dd60e01b8152336004820152306024820152604481018290526001600160a01b038316906323b872dd906064016020604051808303816000875af1158015610810573d6000803e3d6000fd5b505050506040513d601f19601f820116820180604052508101906108349190610c81565b506001600160a01b0382166000908152600160205260408120805483929061085d908490610df0565b90915550505050565b61086e6108d4565b6001600160a01b03919091166000908152600360205260409020805460ff1916911515919091179055565b6108a16108d4565b6001600160a01b0381166108cb57604051631e4fbdf760e01b815260006004820152602401610315565b6105a981610901565b6000546001600160a01b031633146107955760405163118cdaa760e01b8152336004820152602401610315565b600080546001600160a01b038381166001600160a01b0319831681178455604051919092169283917f8be0079c531659141344cd1fd0a4f28419497f9722a3daafe3b4186f6b6457e09190a35050565b6001600160a01b03811681146105a957600080fd5b60006020828403121561097857600080fd5b813561098381610951565b9392505050565b6000806040838503121561099d57600080fd5b82356109a881610951565b946020939093013593505050565b6000806000606084860312156109cb57600080fd5b83356109d681610951565b925060208401356109e681610951565b929592945050506040919091013590565b634e487b7160e01b600052604160045260246000fd5b60405160c0810167ffffffffffffffff81118282101715610a3057610a306109f7565b60405290565b604051601f8201601f1916810167ffffffffffffffff81118282101715610a5f57610a5f6109f7565b604052919050565b600060a08284031215610a7957600080fd5b60405160a0810181811067ffffffffffffffff82111715610a9c57610a9c6109f7565b80604052508235815260208301356020820152604083013560408201526060830135610ac781610951565b60608201526080830135610ada81610951565b60808201529392505050565b60006020808385031215610af957600080fd5b823567ffffffffffffffff80821115610b1157600080fd5b9084019060c08287031215610b2557600080fd5b610b2d610a0d565b823581528383013584820152604083013560408201526060830135610b5181610951565b60608201526080830135610b6481610951565b608082015260a083013582811115610b7b57600080fd5b80840193505086601f840112610b9057600080fd5b823582811115610ba257610ba26109f7565b610bb4601f8201601f19168601610a36565b92508083528785828601011115610bca57600080fd5b808585018685013760009083019094019390935260a0830152509392505050565b80151581146105a957600080fd5b60008060408385031215610c0c57600080fd5b8235610c1781610951565b91506020830135610c2781610beb565b809150509250929050565b6020808252602f908201527f466f72776172646572506f6f6c3a2063616c6c6572206973206e6f742077686960408201526e3a32b634b9ba32b2103334b63632b960891b606082015260800190565b600060208284031215610c9357600080fd5b815161098381610beb565b60208082526025908201527f466f72776172646572506f6f6c3a206173736574466f72776172646572206e6f6040820152641d081cd95d60da1b606082015260800190565b8151815260208083015190820152604080830151908201526060808301516001600160a01b0390811691830191909152608092830151169181019190915260a00190565b634e487b7160e01b600052601160045260246000fd5b81810381811115610d5057610d50610d27565b92915050565b6000602080835283518184015280840151604084015260408401516060840152606084015160018060a01b0380821660808601528060808701511660a0860152505060a084015160c08085015280518060e086015260005b81811015610dcb5782810184015186820161010001528301610dae565b506101009250600083828701015282601f19601f830116860101935050505092915050565b80820180821115610d5057610d50610d2756fea2646970667358221220e3ea7c0c7ce2f36cd5ed281289b75986b38e8cb2209461d0b3f7a23d4e62b32164736f6c63430008140033",
        "nonce": "0xba"
      },
      "additionalContracts": [],
      "isFixedGasLimit": false
    },
    {
      "hash": "0xeff214ff42a674b61a9693bdd9a1208f7bb3e807d4ef86a16ddab98d6ac6fc96",
      "transactionType": "CALL",
      "contractName": "ForwarderPool",
      "contractAddress": "0x5A3B9d460D209577A53842f7ce29ac7635b3a34b",
      "function": "setAssetForwarder(address)",
      "arguments": [
        "0xbdfA400EC4CFd2a3c2Ea2670C647127657970cEa"
      ],
      "transaction": {
        "type": "0x00",
        "from": "0x291ff2d8bebee4302f006667d5af2bb7b8675e49",
        "to": "0x5a3b9d460d209577a53842f7ce29ac7635b3a34b",
        "gas": "0xf8a6",
        "value": "0x0",
        "data": "0x18137a41000000000000000000000000bdfa400ec4cfd2a3c2ea2670c647127657970cea",
        "nonce": "0xbb"
      },
      "additionalContracts": [],
      "isFixedGasLimit": false
    },
    {
      "hash": "0x0386178546094c54c46cac122edb3c9861e758c4c34fbe4f2fe042384cbd79fb",
      "transactionType": "CALL",
      "contractName": "ForwarderPool",
      "contractAddress": "0x5A3B9d460D209577A53842f7ce29ac7635b3a34b",
      "function": "setWhitelistedFiller(address,bool)",
      "arguments": [
        "0x291ff2d8BeBeE4302F006667D5af2bB7b8675e49",
        "true"
      ],
      "transaction": {
        "type": "0x00",
        "from": "0x291ff2d8bebee4302f006667d5af2bb7b8675e49",
        "to": "0x5a3b9d460d209577a53842f7ce29ac7635b3a34b",
        "gas": "0xfa63",
        "value": "0x0",
        "data": "0x9b5efa8d000000000000000000000000291ff2d8bebee4302f006667d5af2bb7b8675e490000000000000000000000000000000000000000000000000000000000000001",
        "nonce": "0xbc"
      },
      "additionalContracts": [],
      "isFixedGasLimit": false
    },
    {
      "hash": "0xa56245e85fd266c567bf6f03bbe1bbea9a6cfaa6fe638641a7a6f5330af9362c",
      "transactionType": "CALL",
      "contractName": "ForwarderPool",
      "contractAddress": "0x5A3B9d460D209577A53842f7ce29ac7635b3a34b",
      "function": "setWhitelistedFiller(address,bool)",
      "arguments": [
        "0xcbA625Dc657CB92D85BcD2c6573605e3ea6E61a9",
        "true"
      ],
      "transaction": {
        "type": "0x00",
        "from": "0x291ff2d8bebee4302f006667d5af2bb7b8675e49",
        "to": "0x5a3b9d460d209577a53842f7ce29ac7635b3a34b",
        "gas": "0x1092f",
        "value": "0x0",
        "data": "0x9b5efa8d000000000000000000000000cba625dc657cb92d85bcd2c6573605e3ea6e61a90000000000000000000000000000000000000000000000000000000000000001",
        "nonce": "0xbd"
      },
      "additionalContracts": [],
      "isFixedGasLimit": false
    },
    {
      "hash": "0xa900cacbc3ea21862cf76ce4b4bb1e87d4cd13c330282d7741ff41ec79e44f33",
      "transactionType": "CALL",
      "contractName": "ERC20Token",
      "contractAddress": "0x22bAA8b6cdd31a0C5D1035d6e72043f4Ce6aF054",
      "function": "approve(address,uint256):(bool)",
      "arguments": [
        "0x5A3B9d460D209577A53842f7ce29ac7635b3a34b",
        "10000000000000 \u001b[2;49;39m[1e13]\u001b[0m"
      ],
      "transaction": {
        "type": "0x00",
        "from": "0x291ff2d8bebee4302f006667d5af2bb7b8675e49",
        "to": "0x22baa8b6cdd31a0c5d1035d6e72043f4ce6af054",
        "gas": "0xf964",
        "value": "0x0",
        "data": "0x095ea7b30000000000000000000000005a3b9d460d209577a53842f7ce29ac7635b3a34b000000000000000000000000000000000000000000000000000009184e72a000",
        "nonce": "0xbe"
      },
      "additionalContracts": [],
      "isFixedGasLimit": false
    },
    {
      "hash": "0xa4e8ca5d170ce492c4318abe3c264a3e338d1be9aa46b992bdb46eb5d3c229d9",
      "transactionType": "CALL",
      "contractName": "ForwarderPool",
      "contractAddress": "0x5A3B9d460D209577A53842f7ce29ac7635b3a34b",
      "function": "depositERC20(address,uint256)",
      "arguments": [
        "0x22bAA8b6cdd31a0C5D1035d6e72043f4Ce6aF054",
        "10000000000000 \u001b[2;49;39m[1e13]\u001b[0m"
      ],
      "transaction": {
        "type": "0x00",
        "from": "0x291ff2d8bebee4302f006667d5af2bb7b8675e49",
        "to": "0x5a3b9d460d209577a53842f7ce29ac7635b3a34b",
        "gas": "0x1c69e",
        "value": "0x0",
        "data": "0x97feb92600000000000000000000000022baa8b6cdd31a0c5d1035d6e72043f4ce6af054000000000000000000000000000000000000000000000000000009184e72a000",
        "nonce": "0xbf"
      },
      "additionalContracts": [],
      "isFixedGasLimit": false
    },
    {
      "hash": "0x4a383c5a86cb461ce9f9e05aaeba84c3975f0f20b92b8bb5b25e61697c0b6f08",
      "transactionType": "CALL",
      "contractName": "ForwarderPool",
      "contractAddress": "0x5A3B9d460D209577A53842f7ce29ac7635b3a34b",
      "function": "approveAssetForwarder(address,uint256)",
      "arguments": [
        "0x22bAA8b6cdd31a0C5D1035d6e72043f4Ce6aF054",
        "10000000000000 \u001b[2;49;39m[1e13]\u001b[0m"
      ],
      "transaction": {
        "type": "0x00",
        "from": "0x291ff2d8bebee4302f006667d5af2bb7b8675e49",
        "to": "0x5a3b9d460d209577a53842f7ce29ac7635b3a34b",
        "gas": "0x133d0",
        "value": "0x0",
        "data": "0x373292a700000000000000000000000022baa8b6cdd31a0c5d1035d6e72043f4ce6af054000000000000000000000000000000000000000000000000000009184e72a000",
        "nonce": "0xc0"
      },
      "additionalContracts": [],
      "isFixedGasLimit": false
    }
  ],
  "receipts": [],
  "libraries": [],
  "pending": [
    "0xc1424826e283d941c8d54f80a84b74fdb0367ec5a9162d13b88c74c5e2206950",
    "0xeff214ff42a674b61a9693bdd9a1208f7bb3e807d4ef86a16ddab98d6ac6fc96",
    "0x0386178546094c54c46cac122edb3c9861e758c4c34fbe4f2fe042384cbd79fb",
    "0xa56245e85fd266c567bf6f03bbe1bbea9a6cfaa6fe638641a7a6f5330af9362c",
    "0xa900cacbc3ea21862cf76ce4b4bb1e87d4cd13c330282d7741ff41ec79e44f33",
    "0xa4e8ca5d170ce492c4318abe3c264a3e338d1be9aa46b992bdb46eb5d3c229d9",
    "0x4a383c5a86cb461ce9f9e05aaeba84c3975f0f20b92b8bb5b25e61697c0b6f08"
  ],
  "returns": {},
  "timestamp": 1706690448,
  "chain": 80001,
  "multi": false,
  "commit": "1e3cfb0"
}